:100000000C94B5000C94DD000C94DD000C94DD0024
:100010000C94DD000C94DD000C94DD000C94DD00EC
:100020000C94DD000C94DD000C94DD000C94231482
:100030000C94DD000C94DD000C94DD000C94DD00CC
:100040000C94BA120C94DD000C9488120C94621279
:100050000C94DD000C94DD000C94DD000C94DD00AC
:100060000C9404130C94DD00084AD73B3BCE016E80
:1000700084BCBFFDC12F3D6C74319ABD56833DDAFF
:100080003D00C77F11BED9E4BB4C3E916BAAAABE0E
:10009000000000803F07634236B79BD8A71A396833
:1000A0005618AEBAAB558C1D3CB7CC5763BD6DED41
:1000B000FD753EF6177231BF000000803F0800005A
:1000C00000BE922449123EABAAAA2ABECDCCCC4C8B
:1000D0003E00000080BEABAAAAAA3E00000000BFFE
:1000E000000000803F0000000000084178D3BB43BF
:1000F00087D1133D190E3CC3BD4282AD2B3E68EC47
:100100008276BED98FE1A93E4C80EFFFBE01C4FFCD
:100110007F3F000000000000000000080002010016
:1001200000030407000000000000000000000000C1
:10013000250028002B0000000000240027002A00D2
:10014000040404040404040402020202020203037D
:100150000303030301020408102040800102040885
:100160001020010204081020DF1411241FBECFEF5D
:10017000D8E0DEBFCDBF11E0A0E0B1E0E0E0F1E506
:1001800002C005900D92A836B107D9F726E0A8E67F
:10019000B1E001C01D92AD30B207E1F710E0C5EB50
:1001A000D0E004C02197FE010E94AD24C43BD107DA
:1001B000C9F70E9487160C947E280C94000090E0EA
:1001C000FC01EC5AFE4F2491805C9E4FFC0184910F
:1001D000882399F090E0880F991FFC01EA5CFE4F9C
:1001E000A591B491FC01E45DFE4F859194918FB788
:1001F000F894EC91E22BEC938FBF0895982F209107
:100200008A0281E0213208F043C0809166028111A8
:10021000FCCF8091890232E03093660290936502B0
:100220009FEF909364021092630220936202A9E60A
:10023000B2E0E2E4F2E090E0291331C01092410212
:1002400090914102880F892B809341028091400256
:10025000813049F510924002809141028093BB00A9
:100260008091BC0083FDF8CF85EC8093BC00809129
:1002700066028230E1F3809164028F3FB1F0809199
:1002800064028032A1F080916402803391F084E0B6
:100290001092680210928A021092670208953D91AE
:1002A00031939F5FC9CF85EEE0CF80E0F1CF82E050
:1002B000EFCF83E0EDCF91E09093670280938902C6
:1002C0001092680210928A02089590913F028091E4
:1002D0003E022FEF3FEF981748F4E92FF0E0E25E7F
:1002E000FD4F208130E09F5F90933F02C901089548
:1002F00090913F0280913E022FEF3FEF981748F414
:10030000E92FF0E0E25EFD4F208130E09F5F9093A7
:100310003F02C901089580913E0290913F02891BDE
:10032000990B089580E480937C0080917A0080642A
:1003300080937A0080917A0086FDFCCF80917800CE
:1003400090917900089581E0089508950895AF92FD
:10035000BF92CF92DF92EF92FF920F931F93CF93B2
:10036000DF936C017B018B01040F151FEB015E0114
:10037000AE18BF08C017D10759F06991D601ED91A9
:10038000FC910190F081E02DC6010995892B79F748
:10039000C501DF91CF911F910F91FF90EF90DF90FA
:1003A000CF90BF90AF900895FC01538D448D252FC1
:1003B00030E0842F90E0821B930B541710F0CF96FF
:1003C000089501970895FC01918D828D981761F031
:1003D000A28DAE0FBF2FB11D5D968C91928D9F5F48
:1003E0009F73928F90E008958FEF9FEF0895FC0127
:1003F000918D828D981731F0828DE80FF11D858DDA
:1004000090E008958FEF9FEF0895FC01918D228D6C
:10041000892F90E0805C9F4F821B91098F739927F1
:1004200008958BE892E00E94050221E0892B09F4EF
:1004300020E0822F089580E090E0892B29F00E942F
:10044000110281110C9400000895FC01A48DA80FE5
:10045000B92FB11DA35ABF4F2C91848D90E0019606
:100460008F739927848FA689B7892C93A089B18926
:100470008C91837080648C93938D848D981306C0C7
:100480000288F389E02D80818F7D80830895EF922B
:10049000FF920F931F93CF93DF93EC0181E0888F3E
:1004A0009B8D8C8D98131AC0E889F989808185FF0E
:1004B00015C09FB7F894EE89FF896083E889F989B0
:1004C00080818370806480839FBF81E090E0DF91B2
:1004D000CF911F910F91FF90EF900895F62E0B8D05
:1004E00010E00F5F1F4F0F731127E02E8C8D8E11C0
:1004F0000CC00FB607FCFACFE889F989808185FF27
:10050000F5CFCE010E942502F1CFEB8DEC0FFD2F30
:10051000F11DE35AFF4FF0829FB7F8940B8FEA89E1
:10052000FB8980818062CFCF682F8BE892E00C94AA
:100530004702CF93DF93EC01888D8823B9F0AA8915
:10054000BB89E889F9898C9185FD03C0808186FD8E
:100550000DC00FB607FCF7CF8C9185FFF2CF8081DD
:1005600085FFEDCFCE010E942502E9CFDF91CF912B
:10057000089590E0FC01E85EFE4F2491FC01EC5AE6
:10058000FE4F3491FC01E05CFE4FE491EE23C9F094
:10059000222339F0233001F1A8F4213019F122305F
:1005A00029F1F0E0EE0FFF1FE45DFE4FA591B4913D
:1005B0008FB7F894EC91611126C030953E233C939F
:1005C0008FBF08952730A9F02830C9F0243049F7AB
:1005D000809180008F7D03C0809180008F77809311
:1005E0008000DFCF84B58F7784BDDBCF84B58F7D6E
:1005F000FBCF8091B0008F778093B000D2CF8091F5
:10060000B0008F7DF9CF3E2BDACF3FB7F8948091C1
:10061000B9019091BA01A091BB01B091BC0126B57E
:10062000A89B05C02F3F19F00196A11DB11D3FBF2A
:10063000BA2FA92F982F8827BC01CD01620F711DF9
:10064000811D911D42E0660F771F881F991F4A95F3
:10065000D1F708952FB7F8946091B5017091B60164
:100660008091B7019091B8012FBF08950895BF926E
:10067000CF92DF92EF92FF920F931F93CF93DF936E
:100680004530D8F4B42E062FEC0110E060E070E0A5
:10069000CB01B116A9F0CC24D62EE72EF82EE88196
:1006A000F9810680F781E02D602FCE010995960132
:1006B000282BC701B9011F5FECCF60E070E0CB01D0
:1006C000DF91CF911F910F91FF90EF90DF90CF902E
:1006D000BF900895089585ED8093BC008091BC0083
:1006E00084FDFCCF10926602089520919101260F9F
:1006F0003327331F21323105ECF420916602FC01CF
:1007000090E080E0243069F082E00895A0919101AA
:100710002191AC014F585E4FA40FB52FB11D2C9302
:100720000196861798F380919101680F609391016B
:1007300080E0089581E008950895E0913F0280915E
:100740003E02E81730F4F0E0E25EFD4F808190E079
:1007500008958FEF9FEF0895CF92DF92EF92FF926F
:100760000F931F93CF93DF937C01CB018A012091DC
:100770006702222389F0EB016B01C40ED51ECC1554
:10078000DD0569F06991D701ED91FC910190F0814F
:10079000E02DC7010995F3CF642F0E947503C801AE
:1007A000DF91CF911F910F91FF90EF90DF90CF904D
:1007B0000895CF93DF931F92CDB7DEB76983209161
:1007C00067022223F9F020918A02203258F021E0BA
:1007D00030E0FC013383228390E080E00F90DF91D2
:1007E000CF91089580916802E82FF0E0E759FD4F1E
:1007F000998190838F5F8093680280938A0281E061
:1008000090E0ECCF61E0CE0101960E947503F7CF36
:1008100081E00C94FE000F931F93CF93DF93082F7A
:10082000162FC2E8D3E08C8D0E945B01602F88E216
:1008300093E00E94D903612F88E293E00E94D903DC
:1008400088E293E00E940804888FDF91CF911F9186
:100850000F9108950F931F93CF93DF93082F162FB7
:10086000C2E8D3E08B8D0E945B01602F88E293E0A9
:100870000E94D903612F88E293E00E94D90388E2A5
:1008800093E00E940804888FDF91CF911F910F9110
:10089000089520919B0330919C032330310511F47E
:1008A0000C940B040C942A040F931F93CF93DF93A3
:1008B000082F162FC0EBD3E089850E945B01602FC3
:1008C00088E293E00E94D903612F88E293E00E94BE
:1008D000D90388E293E00E9408048E83DF91CF91D0
:1008E0001F910F9108950F931F93CF93DF93DC0116
:1008F00096962D913C91232B11F1142F062FEC018C
:1009000088A50E945B018EA19FA1DC01ED91FC9165
:100910000190F081E02D602F09958EA19FA1DC014F
:10092000ED91FC910190F081E02D612F09958EA150
:100930009FA1DF91CF911F910F910C940804DF913B
:10094000CF911F910F91089590E080E00895DC0110
:10095000EC91EC3090F511968C91119728E830E0ED
:10096000281B310987FD3395220F331F220F331FB8
:100970006217730784F012968C9128E532E0281BE9
:10098000310987FD3395220F331F220F331F621762
:1009900073070CF49B0122503109220F331F4FB70C
:1009A000F8948E2F90E0FC01EE0FFF1FE80FF91F67
:1009B000EC5CFC4F328321834FBF08951F93CF938C
:1009C000DF93EC01162F88818C3008F04DC0862F04
:1009D0000E94DF008881282F30E0F901EE0FFF1F11
:1009E000E20FF31FEC5CFC4F1F736081607C612B96
:1009F000608319821A822CE0622F0E948D24829FCC
:100A0000B001112430E020E0AB01420F531FFA0186
:100A1000EE0FFF1FE40FF51FEC5CFC4F908196FD7D
:100A200016C02F5F3F4F2C30310571F781110FC079
:100A30001092800082E080938100109285001092D5
:100A40008400B19A80916F00826080936F00E8818A
:100A50008E2F90E0FC01EE0FFF1FE80FF91FEC5CFA
:100A6000FC4F8081806480838881DF91CF911F91CA
:100A700008952091100230911102C90169E070E0DF
:100A80000E94992470931C0260931B0249E0469FC8
:100A9000C001479F900D1124281B390BC90163E049
:100AA00070E00E94992470931A0260931902CB019E
:100AB000880F991F680F791F261B370B3093180278
:100AC000209317020895AF92BF92CF92DF92EF92D8
:100AD000FF920F931F93CF93DF93CDB7DEB7289785
:100AE0000FB6F894DEBF0FBECDBF809116028823EB
:100AF00009F480C02091F8013091F901205E3C4F4B
:100B00008091000290910102280F391FE091FA01B3
:100B1000F091FB01B9016E0F7F1F4091FC015091D4
:100B2000FD01CB01840F951F9A838983641B750B8C
:100B30007C836B832E1B3F0BF901E41BF50BFE83BB
:100B4000ED83240F351F38872F83803243E09407CD
:100B500014F480E293E0861797070CF4CB018E170C
:100B60009F070CF4CF01821793070CF4C90120E210
:100B7000C22E23E0D22E8235934024F092E5C92E76
:100B800093E0D92E8E010F5F1F4F8DEBE82E83E08F
:100B9000F82E5E01F9E0AF0EB11CF8016191719180
:100BA0008F016C157D0524F16930F7E07F0714F0A3
:100BB00068E077E0F801329771836083C7010E9493
:100BC000A70423E0E20EF11CA016B10631F7289627
:100BD0000FB6F894DEBF0FBECDBFDF91CF911F914E
:100BE0000F91FF90EF90DF90CF90BF90AF9008955E
:100BF000B601E0CF64EF71E08DEB93E00E94A704B3
:100C000064EF71E080EC93E00E94A70464EF71E070
:100C100083EC93E00E94A70464EF71E086EC93E01C
:100C200028960FB6F894DEBF0FBECDBFDF91CF91EF
:100C30001F910F91FF90EF90DF90CF90BF90AF90FA
:100C40000C94A7044F925F926F927F928F929F9223
:100C5000AF92BF92CF92DF92EF92FF920F931F93CA
:100C6000CF93DF93CDB7DEB74C0127013801DC010C
:100C70005F965C934E935E975D967C936E935C97C4
:100C800091963C932E939097DA961C92FC0112AAAF
:100C900013AA14AA15AA80E090E0AFE7B3E486ABEC
:100CA00097ABA0AFB1AF84E690E0A0E0B0E086A73C
:100CB00097A7A0ABB1AB118E108E20E030E0A90158
:100CC000C801B7010E945D1F87FD53C020E030E0DE
:100CD000A901C601B5010E945D1F87FD4AC020E041
:100CE00030E0A9016B897C898D899E890E945D1FF6
:100CF00087FD3FC081E090E0D4015B969C938E938A
:100D00005A97DB968C93DB97F40140825182628282
:100D100073821496AD92BD92CD92DC9217978B8917
:100D20009C89AD89BE8980879187A287B3874486D5
:100D30005586668677862DEC3CEC4CEC5DE3C6016F
:100D4000B5010E94C31FF401608B718B828B938B62
:100D50002DEC3CEC4CEC5DE36B897C898D899E89A4
:100D60000E94FA21D40154966D937D938D939C93A8
:100D700057970E942A03F401C6A4D7A4E0A8F1A8BB
:100D80006C197D098E099F0962A373A384A395A39F
:100D9000DF91CF911F910F91FF90EF90DF90CF9057
:100DA000BF90AF909F908F907F906F905F904F908B
:100DB0000895809166028111FCCF413208F040E233
:100DC00081E080936602809365029FEF90936402B6
:100DD00010926302940F909362028093410280917B
:100DE0004102660F682B609341028091400281307E
:100DF00019F510924002809141028093BB008091CE
:100E0000BC0083FDF8CF85EC8093BC008091660226
:100E10008130E1F380916302841710F44091630202
:100E2000E2E4F2E0AEE1B2E080E0841307C01092A9
:100E30003F0280933E02089585EEE6CF91919D9307
:100E40008F5FF3CFCF93DF93C82FD62F0E945B0124
:100E50006D2F88E293E00E94D90388E293E00E941C
:100E60000804811110C041E06C2F88E293E00E94D9
:100E7000D90690913E0280913F02981721F0DF91B0
:100E8000CF910C9478018FEF9FEFDF91CF91089570
:100E9000CF93C82F0E945B016FE088E293E00E942D
:100EA000D90388E293E00E94080481110FC041E059
:100EB0006C2F88E293E00E94D90690913E028091C7
:100EC0003F02981719F0CF910C9478018FEF9FEFA4
:100ED000CF910895FF920F931F93CF93DF9380914B
:100EE000B9030E945B0168EA88E293E00E94D9039B
:100EF00088E293E00E94080446E06091B90388E22A
:100F000093E00E94D9060E942A03EB0180913E02E1
:100F100090913F02891B990B2091BA033091BB033A
:100F200086309105BCF421153105D1F30E942A03C6
:100F30006C1B7D0B8091BA039091BB0386179707BA
:100F400028F781E08093BC03DF91CF911F910F912F
:100F5000FF9008950E947801082F0E947801F82ED2
:100F60000E947801D82F0E947801182F0E947801E2
:100F7000C82F0E94780120E03F2D202B3093B10331
:100F80002093B00320E0312F2D2B3093B303209317
:100F9000B20320E0382F2C2B3093B5032093B403F9
:100FA000D3CFCF92DF92EF92FF920F931F93CF9305
:100FB000DF93DC0196962D913C91232BC1F14530B6
:100FC000B0F5142F062FEC0188A50E945B018EA1BD
:100FD0009FA1DC01ED91FC910190F081E02D602F4B
:100FE000099580E00E94FE00412F68A58EA19FA177
:100FF0000E94D90600E060E070E0CB011017D1F04C
:10100000CC24D62EE72EF82E8EA19FA1DC01ED91E7
:10101000FC910284F385E02D0995BC01990F880BA2
:10102000990B6C297D298E299F290F5FE7CF60E0FE
:1010300070E0CB01DF91CF911F910F91FF90EF9066
:10104000DF90CF90089542E0682F89E593E00E94F9
:10105000D1078827992708951F93CF93DF93DC0149
:1010600096962D913C91232B29F1162FEC0188A502
:101070000E945B018EA19FA1DC01ED91FC9101908A
:10108000F081E02D612F099580E00E94FE0041E093
:1010900068A58EA19FA10E94D9068EA19FA1DC0107
:1010A000ED91FC910284F385E02D0995DF91CF91BC
:1010B0001F91089580E0FACF4F925F926F927F92D6
:1010C0008F929F92AF92BF92CF92DF92EF92FF9258
:1010D00064EF89E593E00E942C0885FD14C0F09030
:1010E000720384E38093710364EF89E593E00E94C7
:1010F0002C0880E4F89EA0011124446364EF89E584
:1011000093E00E94730440907B0350907C036090B6
:101110007D0370907E0380EA481A8FE0580A6108C8
:101120007108A3019201C301B2010E947D246B01E9
:101130007C01FCE0F594E794D794C794FA95D1F735
:10114000E0917203A0915F03B09160030E94AB2015
:101150004B015C01ADE0B594A79497948794AA9550
:10116000D1F7A0916703B0916803A70196010E948F
:10117000AB209C01552737FD5095452F280D391D73
:101180004A1D5B1D2E5F3F4F4F4F5F4F82E05595CD
:101190004795379527958A95D1F730584F4F5F4F30
:1011A000A0916103B09162030E94A0204B015C01F9
:1011B0009FE0B694A794979487949A95D1F7A091BD
:1011C0006903B0916A03A70196010E94AB206B01ED
:1011D0007C012BE0F594E794D794C7942A95D1F736
:1011E000A0915D03B0915E03A30192010E94AB2028
:1011F0003BE095958795779567953A95D1F7C60E1B
:10120000D71EE81EF91E80915B0390915C03092EA6
:10121000000CAA0BBB0B42E0880F991FAA1FBB1F33
:101220004A95D1F78C0D9D1DAE1DBF1D6C017D0132
:101230000E2E04C0CC0CDD1CEE1CFF1C0A94D2F751
:1012400082E0C80ED11CE11CF11C52E0F594E79439
:10125000D794C7945A95D1F72091730330917403B2
:1012600040917503509176032C193D094E095F0991
:1012700060E573EC80E090E004C0959587957795E4
:101280006795EA95D2F70E947D2497FD56C0660FB8
:10129000771F881F991FA50194010E94EA20690108
:1012A0007A019927F7FC9A958F2D7E2D6D2D9B0144
:1012B000AC010E947D249B01AC01AEEDBBE00E941D
:1012C000A0204B015C01A3E4B3EEA70196010E94AC
:1012D000AE20BC01992777FD9095892F4501BB244D
:1012E00097FCB094AB2C680D791D8A1D9B1D615332
:1012F000714F8F4F9F4F44E09595879577956795F0
:101300004A95D1F76C0D7D1D8E1D9F1D0E94641F97
:1013100060936C0170936D0180936E0190936F01E7
:10132000FF90EF90DF90CF90BF90AF909F908F9005
:101330007F906F905F904F900895A50194010E9457
:10134000EA2069017A01CC0CDD1CEE1CFF1CA9CF40
:101350008F929F92AF92BF920F931F93CF93DF9381
:10136000CDB7DEB7A1970FB6F894DEBF0FBECDBFE5
:1013700019A2423008F44AE08E010F5D1F4F842EFF
:10138000912CB12CA12CA50194010E94EA20E62FFA
:10139000B901CA01EA3044F5E05DD801EE938D0150
:1013A000232B242B252B79F790E080E0109769F010
:1013B000FD0101900020E9F73197AF014A1B5B0B5B
:1013C000BD018BE892E00E94A701A1960FB6F894A8
:1013D000DEBF0FBECDBFDF91CF911F910F91BF90A8
:1013E000AF909F908F900895E95CD7CFCF92DF9216
:1013F000EF92FF92CF93DF936C01990FEE08FF08F5
:10140000F7FE17C08DE20E949402EC016627772751
:10141000CB016C197D098E099F094AE00E94A80939
:101420008C0F9D1FDF91CF91FF90EF90DF90CF90B9
:1014300008954AE0C701B601DF91CF91FF90EF9088
:10144000DF90CF900C94A8090E94D8250C944F25CA
:101450000C944F254F925F926F927F928F929F9242
:10146000AF92BF92CF92DF92EF92FF92CF93DF9332
:1014700000D000D000D0CDB7DEB79E838D83DC01D5
:101480004D905D906D907C90139714968D909D90EB
:10149000AD90BC90179718968D919D910D90BC9131
:1014A000A02D89839A83AB83BC83A3019201C301DE
:1014B000B2010E94C31F6B017C01A5019401C5010B
:1014C000B4010E94C31F9B01AC01C701B6010E9479
:1014D0001C216B017C0129813A814B815C81CA010D
:1014E000B9010E94C31F9B01AC01C701B6010E9454
:1014F0001C210E942C236B017C01AC019B01C301C8
:10150000B2010E94FA21ED81FE81608371838283A2
:101510009383A7019601C501B4010E94FA21AD8110
:10152000BE8114966D937D938D939C931797A7011D
:10153000960169817A818B819C810E94FA21ED81DB
:10154000FE81608771878287938726960FB6F8940D
:10155000DEBF0FBECDBFDF91CF91FF90EF90DF9048
:10156000CF90BF90AF909F908F907F906F905F9043
:101570004F9008954F925F926F927F928F929F92B9
:10158000AF92BF92CF92DF92EF92FF92CF93DF9311
:10159000CDB7DEB7AA970FB6F894DEBF0FBECDBFAA
:1015A000498F5A8F6B8F7C8F8D8F9E8F60919403A4
:1015B00070919503072E000C880B990BC0908E0339
:1015C000D0908F030D2C000CEE08FF086C0D7D1DD4
:1015D0008E1D9F1D22E0C22ED12CE12CF12CA701E3
:1015E00096010E9481208091880390918903092EA1
:1015F000000CAA0BBB0B4C015D01821A930AA40AD2
:10160000B50A8F8E98A2A9A2BAA260919603709192
:101610009703072E000C880B990B809090039090F5
:101620009103092C000CAA08BB08680D791D8A1DBE
:101630009B1DA70196010E94812080918A039091B1
:101640008B03092E000CAA0BBB0B4C015D01821A07
:10165000930AA40AB50A8BA29CA2ADA2BEA2609175
:10166000980370919903072E000C880B990B8090BA
:10167000920390909303092C000CAA08BB08680DF4
:10168000791D8A1D9B1DA70196010E948120C09093
:101690008C03D0908D030D2C000CEE08FF08C21AAD
:1016A000D30AE40AF50A4090860350908703052C7C
:1016B000000C6608770880918403909185034C01A3
:1016C000990FAA08BB088FA298A6A9A6BAA62BA113
:1016D0003CA14DA15EA1C301B2010E947D244B013A
:1016E0005C01A70196016FA178A589A59AA50E9422
:1016F0007D24A5019401261B370B480B590BCA0109
:10170000B9010E94641F6D877E878F87988B8090B8
:10171000820390908303092C000CAA08BB08A70140
:101720009601C501B4010E947D246B017C012F8DBF
:1017300038A149A15AA1C301B2010E947D24A70189
:101740009601261B370B480B590BCA01B9010E94A1
:10175000641F698B7A8B8B8B9C8B2F8D38A149A151
:101760005AA16FA178A589A59AA50E947D246B0135
:101770007C012BA13CA14DA15EA1C501B4010E9439
:101780007D2446015701861A970AA80AB90AC5019D
:10179000B4010E94641F6D8B7E8B8F8B988FCE015E
:1017A0000D960E942A0A6091840370918503072E8A
:1017B000000C880B990B0E94641F6B017C018D88C3
:1017C0009E88AF88B88C8F8E98A2A9A2BAA2609189
:1017D000860370918703072E000C880B990B0E94DB
:1017E000641F2B013C0189889A88AB88BC888BA236
:1017F0009CA2ADA2BEA22F8D38A149A15AA1C701BA
:10180000B6010E94C31F4B015C012BA13CA14DA15D
:101810005EA1C301B2010E94C31F9B01AC01C501BF
:10182000B4010E941B2169837A838B839C838D84FE
:101830009E84AF84B8888FA298A6A9A6BAA6609104
:10184000820370918303072E000C880B990B0E9472
:10185000641F4B015C012FA138A549A55AA5C301FE
:10186000B2010E94C31F2B013C01A50194016F8DA1
:1018700078A189A19AA10E94C31F9B01AC01C30159
:10188000B2010E941B216D837E838F839887A501FF
:1018900094016BA17CA18DA19EA10E94C31F4B014D
:1018A0005C012FA138A549A55AA5C701B6010E9420
:1018B000C31F9B01AC01C501B4010E941B216987B4
:1018C0007A878B879C87CE0101960E942A0A698DB0
:1018D0007A8D072E000C880B990B0E94641F2B0138
:1018E0003C016B8D7C8D072E000C880B990B0E94A0
:1018F000641F4B015C016D8D7E8D072E000C880BE3
:10190000990B0E94641F6B017C0129813A814B81F4
:101910005C81C301B2010E94C31F6F8F78A389A3AA
:101920009AA32D813E814F815885C501B4010E9443
:10193000C31F9B01AC016F8D78A189A19AA10E9460
:101940001C216F8F78A389A39AA329853A854B859B
:101950005C85C701B6010E94C31F9B01AC016F8D5E
:1019600078A189A19AA10E941C216F8F78A389A3D5
:101970009AA32D853E854F855889C301B2010E94E7
:10198000C31F2B013C0129893A894B895C89C50118
:10199000B4010E94C31F9B01AC01C301B2010E94AC
:1019A0001C214B015C012D893E894F89588DC7014F
:1019B000B6010E94C31F9B01AC01C501B4010E9486
:1019C0001C212F8D38A149A15AA10E949B2120E002
:1019D00030E044E353E40E94C31F2BED3FE049E4B1
:1019E00050E40E94FA216B017C0120E030E0A90163
:1019F0000E945D1F87FF0AC020E030E044EB53E403
:101A0000C701B6010E941C216B017C01C701B60110
:101A1000AA960FB6F894DEBF0FBECDBFDF91CF916F
:101A2000FF90EF90DF90CF90BF90AF909F908F90FE
:101A30007F906F905F904F9008954F925F926F925A
:101A40007F928F929F92AF92BF92CF92DF92EF924E
:101A5000FF920F931F93CF93DF93CDB7DEB76097BD
:101A60000FB6F894DEBF0FBECDBF0E946A0780910B
:101A70009D030E945B0168EA88E293E00E94D9031B
:101A800088E293E00E94080480939A0346E0609104
:101A90009D0388E293E00E94D9060E942A038B01ED
:101AA00080913E0290913F02891B990B2091AD03DA
:101AB0003091AE03863091050CF0F0C1211531054F
:101AC000C9F30E942A03601B710B8091AD039091B2
:101AD000AE038617970720F781E08093AF038091CC
:101AE0009E030E945B0180919B0390919C036091F7
:101AF000A1037091A203039729F46091A30370914D
:101B0000A403606888E293E00E94D90388E293E02E
:101B10000E94080480939A0346E060919E0388E245
:101B200093E00E94D9060E942A038B0180913E0215
:101B300090913F02891B990B2091AD033091AE0328
:101B4000863091050CF0D1C121153105C9F30E94F1
:101B50002A03601B710B8091AD039091AE03861731
:101B6000970720F781E08093AF030E942A0320911A
:101B70006801309169017B01E21AF30A6093680100
:101B80007093690180936A0190936B0180919B032C
:101B900090919C03039709F0F8C181E0482F898355
:101BA0001A821C821B821E821D8250E060E07C81B2
:101BB00080E09E810E94BA0A0E946C228B01643BE5
:101BC00071050CF0F0C10C541F4FB701FF0C880BCE
:101BD000990B0E94641F6B017C01609186037091D8
:101BE0008703072E000C880B990B0E94641F2B01A2
:101BF0003C01609182037091830371956195710935
:101C0000072E000C880B990B0E94641FA301920100
:101C10000E949B216D877E878F87988B6091B00390
:101C20007091B103072E000C880B990B0E94641F62
:101C30002091EC013091ED014091EE015091EF01C6
:101C40000E941B21A70196010E94C31F2FE632E1CB
:101C500043E85AE30E94C31F20E030E04CE051E427
:101C60000E94C31F20E030E04AE754E40E94FA21BA
:101C700025E33AEF4EE85CE30E94C31F2091020285
:101C80003091030240910402509105020E941C21F0
:101C900028E431EE4AE75FE30E94C31F4B015C0179
:101CA0002AE037ED43EA5CE36D857E858F85988970
:101CB0000E94C31F9B01AC01C501B4010E941C21FD
:101CC00060930202709303028093040290930502D2
:101CD0008090F0019090F101A090F201B090F3019A
:101CE0006091840370918503719561957109072E48
:101CF000000C880B990B0E94641FA30192010E94A3
:101D00009B212B013C016091B2037091B303072E1C
:101D1000000C880B990B0E94641FA50194010E947E
:101D20001B21A70196010E94C31F2FE632E143E861
:101D30005AE30E94C31F20E030E04CE051E40E94CF
:101D4000C31F20E030E04AE754E40E94FA2125E373
:101D50003AEF4EE85CE30E94C31F209106023091E7
:101D6000070240910802509109020E941C2128E4B8
:101D700031EE4AE75FE30E94C31F6D877E878F873E
:101D8000988B2AE037ED43EA5CE3C301B2010E947D
:101D9000C31F9B01AC016D857E858F8598890E944C
:101DA0001C216093060270930702809308029093AF
:101DB00009026091B4037091B503072E000C880BE3
:101DC000990B0E94641FA50194010E941B21A70189
:101DD00096010E94C31F2FE632E143E85AE30E94B6
:101DE000C31F20E030E04CE051E40E94C31F20E01C
:101DF00030E04AE754E40E94FA2125E33AEF4EE846
:101E00005CE30E94C31F9B01AC0160910A027091C8
:101E10000B0280910C0290910D020E941B2128E47C
:101E200031EE4AE75FE30E94C31F6B017C01B801FA
:101E3000110F880B990B0E94641F2AE037ED43EACB
:101E40005CE30E94C31F25E33AEF4EE85CE30E9487
:101E5000C31F9B01AC01C701B6010E941C21609306
:101E60000A0270930B0280930C0290930D0260960D
:101E70000FB6F894DEBF0FBECDBFDF91CF911F919B
:101E80000F91FF90EF90DF90CF90BF90AF909F9019
:101E90008F907F906F905F904F9008950E9478018F
:101EA000E82E0E947801D82E0E947801082F0E9407
:101EB0007801F82E0E947801182F0E94780120E006
:101EC0003D2D2E29309383032093820320E03F2D64
:101ED000202B309385032093840320E0382F212B7F
:101EE0003093870320938603FACD80919B039091D2
:101EF0009C03039721F50E947801C82E0E94780167
:101F0000F82E0E947801D82E0E947801082F0E9496
:101F10007801E82E0E947801182F9F2D8C2D909328
:101F2000890380938803902F8D2D90938B0380934A
:101F30008A03F12EF0928D03E0928C0316CE0E945C
:101F40007801F82E0E947801C82E80919B03909111
:101F50009C03892B69F40E947801082F0E94780164
:101F6000D82E0E947801182F0E947801E82ED5CF34
:101F70000E947801182F0E947801E82E0E947801B3
:101F8000082F0E947801D82EC8CF18861F828FEFA5
:101F9000682F89878A871C861B8640E058857FEFDB
:101FA00080E09C8507CE045B11090FCE3F924F92D3
:101FB0005F926F927F928F929F92AF92BF92CF92D9
:101FC000DF92EF92FF920F931F93CF93DF938C01D9
:101FD0007B01D0E0C0E0312C84E1C82ED12C2B0154
:101FE000770F66087708C230D1052CF4FE01EA5E4F
:101FF000FE4F808113C0C230D10599F4043611051B
:102000004CF480E30E9494020A3011051CF480E332
:102010000E949402C8010E94F6098BE30E94940278
:102020002FC0CE0106970F9738F5B6016C1B7D0BBC
:10203000072E000C880B990B0E94641F9B01AC01BA
:1020400060E070E080E291E40E94D6224B015C01E6
:10205000C301B2010E94641FA50194010E945D1F8B
:1020600087FF02C080E3DACF311003C0C7010E94AE
:10207000F6093324339404C0C531D1050CF0B6CF32
:102080002196C831D10509F0AECFDF91CF911F91D4
:102090000F91FF90EF90DF90CF90BF90AF909F9007
:1020A0008F907F906F905F904F903F900895CF9367
:1020B000DF93EC01809110029091110290930F0236
:1020C00080930E02D0931102C09310020E94390532
:1020D000BE018AE090E0DF91CF910C94D60F20E012
:1020E00030E543EC57E460916C0170916D01809193
:1020F0006E0190916F010E941B210E946C228BE562
:1021000092E00C94D60FCF93DF93C2E0D2E020E0B0
:1021100030E04AE754E4688179818A819B810E949A
:10212000C31F20E030EC4AED55E40E941C210E94C0
:102130006C2288E592E00E94D60F20E030E04AE76A
:1021400054E46C817D818E819F810E94C31F20E0B9
:1021500030EC4AED55E40E941C210E946C2289E576
:1021600092E00E94D60F20E030E04AE754E4688510
:1021700079858A859B850E94C31F20E030EC4AED5B
:1021800055E40E941C210E946C228AE592E0DF91B6
:10219000CF910C94D60F2F923F924F925F926F92F5
:1021A0007F928F929F92AF92BF92CF92DF92EF92E7
:1021B000FF920F931F93CF93DF93CDB7DEB728978E
:1021C0000FB6F894DEBF0FBECDBF80911402909180
:1021D0001502009709F44BC09F938F9382E691E01C
:1021E0009F938F93CE0101969F938F930E94DD253D
:1021F00080911402909115020F900F900F900F9004
:102200000F900F908436910590F18538910550F527
:10221000EB800E2C000CFF0820E3E21AF1086A8024
:10222000062C000C770830E3631A710880911202C3
:10223000909113028301000F111FE114F10481F149
:102240006801C60CD71CCE0CDF1CCC0CDD1CCC0CE2
:10225000DD1C960127523A4F690164E670E00E9446
:10226000992429C08D589109049708F40CC1289627
:102270000FB6F894DEBF0FBECDBFDF91CF911F9197
:102280000F91FF90EF90DF90CF90BF90AF909F9015
:102290008F907F906F905F904F903F902F90089518
:1022A0004CE0469D9001479D300D1124A9014752F5
:1022B0005A4F6A01BC0190E080E00E94621FF60163
:1022C0006083718382839383060D171DF801E052AA
:1022D000FE4FEE0DFF1D81E080830E0D1F1DF801E6
:1022E000EE0FFF1FEE0FFF1FE752FA4F6081718163
:1022F000828193810E946C222AE0269DA001279D65
:10230000500D11249A012C573C4FC9018E0D9F1D71
:102310000E94D60F8CE0869D8001879D100D1124B0
:1023200007521A4FF801208031804280538020E00C
:1023300030E0A901C201B1010E945D1F87FD9AC072
:10234000F80184809580A680B78020E030E0A90164
:10235000C501B4010E945D1F87FD8CC0F801C084D7
:10236000D184E284F38420E030E0A901C701B60102
:102370000E945D1F87FD7EC08CE3869DF001879DD6
:10238000F00D1124E753FC4F81E0228D338D213075
:10239000310509F080E083AF8CE3869D8001879D45
:1023A000100D112407531C4FF80120823182428204
:1023B000538284829582A682B782C086D186E286C5
:1023C000F38666A577A580A991A90E94621F20E0E7
:1023D00030E04AE754E40E94FA216D837E838F83C4
:1023E0009887F80124863586468657869B01AC017E
:1023F000C501B4010E94C31F4B015C01F801808A32
:10240000918AA28AB38A2D813E814F815885C70166
:10241000B6010E94FA216B017C01F801C48AD58AB9
:10242000E68AF78A808D918D019721F5A2019101AD
:1024300060E070E0CB010E941B21F8016487758782
:1024400086879787A501940160E070E0CB010E9428
:102450001B21F801608B718B828B938BA7019601F6
:1024600060E070E0CB010E941B21F801648B758B4A
:10247000868B978B10921502109214021092130201
:1024800010921202F4CE8B81082E000C990BC1978A
:102490002CE0289F8001299F100D112403591A4F09
:1024A000809112029091130268EE73E00E949924C9
:1024B00090E080E00E94621FF80160837183828354
:1024C0009383D8CF1F920F920FB60F9211242F93A0
:1024D0003F934F935F936F937F938F939F93AF93AC
:1024E000BF93EF93FF938BE892E00E942502FF9148
:1024F000EF91BF91AF919F918F917F916F915F917C
:102500004F913F912F910F900FBE0F901F901895F4
:102510001F920F920FB60F9211242F938F939F93B8
:10252000EF93FF93E0919B02F0919C028081E091F8
:10253000A102F091A20282FD1BC090818091A402B1
:102540008F5F8F732091A502821741F0E091A40262
:10255000F0E0E557FD4F958F8093A402FF91EF9136
:102560009F918F912F910F900FBE0F901F901895F4
:102570008081F4CF1F920F920FB60F9211242F93E8
:102580003F938F939F93AF93BF938091B5019091A9
:10259000B601A091B701B091B8013091B40123E028
:1025A000230F2D3758F50196A11DB11D2093B401BD
:1025B0008093B5019093B601A093B701B093B80191
:1025C0008091B9019091BA01A091BB01B091BC0179
:1025D0000196A11DB11D8093B9019093BA01A093FA
:1025E000BB01B093BC01BF91AF919F918F913F917F
:1025F0002F910F900FBE0F901F90189526E8230F74
:102600000296A11DB11DD2CF1F920F920FB60F924D
:1026100011242F933F934F935F936F937F938F93E7
:102620009F93AF93BF93EF93FF938091B900887FFF
:10263000803609F44AC0F0F5883209F4A7C018F5CD
:10264000803109F49BC0B8F4882309F4F9C08830BC
:1026500009F494C0FF91EF91BF91AF919F918F9139
:102660007F916F915F914F913F912F910F900FBE8E
:102670000F901F901895883109F488C0803251F767
:102680008093640214C0803409F49DC040F4803308
:10269000B9F38833F9F68093640285ECB0C08035D5
:1026A00009F485C0883509F496C0883499F60E94EB
:1026B0006B03D0CF883909F48CC038F5883729F0FE
:1026C00050F4883611F0803729F683E08093660253
:1026D0001092B30157C0883809F47BC0803919F0D3
:1026E000803809F0B7CF8091B301803208F071C013
:1026F000E091B30181E08E0F8093B3018091BB0024
:10270000F0E0ED56FE4F80833DC0803B39F0E0F4B1
:10271000803A09F479C0883A09F09CCF84E080932C
:1027200066021092920110929101E091D701F0910E
:10273000D80109958091910181110FC081E08093AA
:1027400091011092710109C0803C09F4A6CF883C28
:1027500009F4A3CF883B09F07DCFE091920181E09D
:102760008E0F80939201F0E0EF58FE4F80818093AE
:10277000BB00909192018091910129C0809141020A
:102780008093BB0085EC8093BC0064CF9091630282
:1027900080916202981758F5E091630281E08E0FF4
:1027A00080936302F0E0EE5BFD4F8081E9CFE09122
:1027B000630281E08E0F809363028091BB00F0E0A2
:1027C000EE5BFD4F808390916302809162029817C7
:1027D000C8F285E8D8CFE091630281E08E0F809344
:1027E00063028091BB00F0E0EE5BFD4F808380913F
:1027F000650281115CCF81E08093400284EA80937E
:10280000BC001092660226CF85EC8093BC0010922B
:1028100066028091B301803230F4E091B301F0E0C0
:10282000ED56FE4F10826091B30170E0E091D5014A
:10283000F091D60183E991E009951092B3010ACF96
:102840001092640234CF1F920F920FB60F92112490
:102850002F933F934F935F936F937F938F939F93A8
:10286000AF93BF93CF93DF93EF93FF93809170016A
:10287000C0915803D0E087FF24C0109285001092C9
:102880008400809170018F5F80937001809170014E
:10289000082E000C990B8C179D0724F48091700171
:1028A0008C30C4F18091840090918500049680342E
:1028B0009C4908F47AC08091840090918500049628
:1028C00076C080917001082E000C990B8C179D0723
:1028D000C4F6E09170018E2FEE0F990BFC01EE0F04
:1028E000FF1FE80FF91FEC5CFC4F808186FFC9CF0A
:1028F000E09170018E2FEE0F990BFC01EE0FFF1F80
:10290000E80FF91FEC5CFC4F808160E08F730E9440
:10291000B902B7CF2091840030918500E091700119
:102920008E2FEE0F990BFC01EE0FFF1FE80FF91F22
:10293000EC5CFC4F81819281820F931F9093890000
:1029400080938800E09170018E2FEE0F990BFC01AF
:10295000EE0FFF1FE80FF91FEC5CFC4F808186FF34
:1029600011C0E09170018E2FEE0F990BFC01EE0F5C
:10297000FF1FE80FF91FEC5CFC4F808161E08F7353
:102980000E94B902FF91EF91DF91CF91BF91AF917A
:102990009F918F917F916F915F914F913F912F9177
:1029A0000F900FBE0F901F90189580E49CE99093B4
:1029B0008900809388008FEF80937001E3CFAF92FE
:1029C000BF92CF92DF92EF92FF920F931F931092DC
:1029D0008E0210928D0288EE93E0A0E0B0E080932A
:1029E0008F0290939002A0939102B093920222E3FF
:1029F00031E030938C0220938B0225EC30E0309351
:102A000098022093970224EC30E030939A022093AE
:102A1000990220EC30E030939C0220939B0221EC41
:102A200030E030939E0220939D0222EC30E0309300
:102A3000A00220939F0226EC30E03093A202209364
:102A4000A1021092A4021092A5021092A602109266
:102A5000A70210922B0310922A0380932C039093C9
:102A60002D03A0932E03B0932F0384E491E0909361
:102A7000290380932803A090DD05B090DE05C09067
:102A8000DF05D090E005E090D905F090DA050091DF
:102A9000DB051091DC058091E4058F938091E305BF
:102AA0008F938091E2058F938091E1058F932DE6BE
:102AB00035E045E755E061E775E08DE995E00E9476
:102AC0002206A090E905B090EA05C090EB05D090F1
:102AD000EC05E090E505F090E6050091E705109122
:102AE000E8058091F0058F938091EF058F93809199
:102AF000EE058F938091ED058F9329E735E041E84E
:102B000055E06DE775E081E395E00E942206A09014
:102B1000F505B090F605C090F705D090F805E09067
:102B2000F105F090F2050091F3051091F405809104
:102B3000FC058F938091FB058F938091FA058F930D
:102B40008091F9058F9325E835E04DE855E069E877
:102B500075E085EF94E00E942206A0900106B090F7
:102B60000206C0900306D0900406E090FD05F090A8
:102B7000FE050091FF0510910006809108068F93D5
:102B8000809107068F93809106068F9380910506AA
:102B90008F9321E935E049E955E065E975E089EB76
:102BA00094E00E9422068CE3EDE9F5E0A9ECB3E0A5
:102BB00001900D928A95E1F78CE3E1E3F5E0A5E061
:102BC000B4E001900D928A95E1F78CE3E5EFF4E033
:102BD000A1E4B4E001900D928A95E1F78CE3E9EB72
:102BE000F4E0ADE7B4E001900D928A95E1F7EDEBEA
:102BF000F3E029EC33E08DB79EB740960FB6F8941A
:102C00009EBF0FBE8DBF4FEF68EB7BE080915803F6
:102C10008C3008F07AC091E0980F9093580380832D
:102C200090E0DC01AA0FBB1FA80FB91FAC5CBC4F22
:102C300012967C936E93119733962E173F0731F7B8
:102C400083E090E09093B8038093B7031092BB03A6
:102C50001092BA031092BC0386E0EAE0F1E0A4E926
:102C6000B3E001900D928A95E1F786E0E0E1F1E0B2
:102C7000AEE8B3E001900D928A95E1F784E090E030
:102C800090939C0380939B031092AE031092AD032C
:102C90001092AF031092710310927203109273039B
:102CA00010927403109275031092760310927703BA
:102CB000109278031092790310927A0310927B039A
:102CC00010927C0310927D0310927E03EBE5F3E0FB
:102CD00086E1DF011D928A95E9F788E293E09093FF
:102CE000800380937F0387E78093810386E591E0EB
:102CF00090935A03809359031F910F91FF90EF9087
:102D0000DF90CF90BF90AF900895408395CFCF9341
:102D1000DF93CDB7DEB7AF970FB6F894DEBF0FBE27
:102D2000CDBF789484B5826084BD84B5816084BD54
:102D300085B5826085BD85B5816085BD80916E0059
:102D4000816080936E00109281008091810082608A
:102D500080938100809181008160809381008091C7
:102D600080008160809380008091B10084608093B6
:102D7000B1008091B00081608093B00080917A00B2
:102D8000846080937A0080917A00826080937A00D8
:102D900080917A00816080937A0080917A008068C7
:102DA00080937A001092C1001092110210921002CA
:102DB00080E10E94DF0081E10E94DF008FE00E943D
:102DC000DF000E943905E0919B02F0919C0282E0B5
:102DD0008083E0919B02F0919C021082E091970227
:102DE000F09198021082E0919902F0919A0280E1AC
:102DF00080831092A302E0919F02F091A00286E0EE
:102E00008083E0919D02F0919E02808180618083A9
:102E1000E0919D02F0919E02808188608083E09124
:102E20009D02F0919E02808180688083E0919D02E6
:102E3000F0919E0280818F7D808382E390E0A0E00C
:102E4000B0E080938F0290939002A0939102B09390
:102E500092029E01205F3F4F398B288B8BE892E0D6
:102E60000E940502181619060CF05EC0EDEBF1E0A9
:102E70008181819331E0E43DF307D1F78BE892E063
:102E80000E94E3018093D4012091BD019091BE0185
:102E90009B3319F491E0273609F090E02091D3019B
:102EA000253609F079C08B3309F076C0992309F4EF
:102EB00073C02091BF01022E000C330B2053310947
:102EC00044E6429FC001439F900D11242091C00110
:102ED000022E000C330B205331096AE0629FA001DF
:102EE000639F500D1124840F951F2091C101022E64
:102EF000000C330B20533109820F931F909315025E
:102F000080931402A3ECB1E0FE013196CF012D9124
:102F10002193288939892E173F07C9F70E94371F47
:102F20009093130280931202109216028091140261
:102F3000909115020B9771F48091120290911302F7
:102F40000E94571010921502109214021092130250
:102F5000109212028091100290911102009709F0D4
:102F600041C20E949201BC01990F880B990B0E94EB
:102F7000641F21E338E04CEA5CE30E94C31F20E0B9
:102F800030E040E850E40E94C922181674F483E14E
:102F900090E00E94571072C2109215021092140213
:102FA0001092130210921202BFCF10923F021092A1
:102FB0003E021092680210928A021092660281E02C
:102FC000809365021092400261E082E10E94B902A2
:102FD00061E083E10E94B9028091B9008E7F809305
:102FE000B9008091B9008D7F8093B90088E4809307
:102FF000B80085E48093BC0085EA91E09093D80105
:103000008093D701A6EAB1E0B093D601A093D50191
:103010008BE60E9448078F3F980709F414C1873D4B
:10302000910509F01FC182E090E021E030E090932B
:10303000B8038093B7030197029708F01CC18AE692
:103040002130310509F48BE68093B9036FE070E01D
:103050008DE10E9422078934910509F400C76FE0D1
:1030600070E08EE10E9422078934910509F0D5C6EF
:1030700083E090E090939C0380939B038EE1809388
:103080009E0380939D0328E030E03093A4032093B7
:10309000A30389E090E09093A2038093A1038AE0C8
:1030A00090E09093A8038093A7038BE090E0909327
:1030B000A6038093A5038CE090E09093AC038093EB
:1030C000AB038DE090E09093AA038093A90360ED99
:1030D00089E593E00E942C08853509F07AC08AEAD8
:1030E0000E9423086A8B7B8B8C8B9D8B8CEA0E94C1
:1030F00023086E8B7F8B888F998F8EEA0E9423081E
:103100006A8F7B8F8C8F9D8F80EB0E9423086E8F40
:103110007F8F88A399A382EB0E9423086CA37DA3D1
:103120008EA39FA384EB0E94230868A779A78AA790
:103130009BA786EB0E9423086CA77DA78EA79FA75D
:1031400088EB0E9423082B018AEB0E9423084B0185
:103150008CEB0E9423086B018EEB0E942308AA8946
:10316000BB89B0935C03A0935B03EE89FF89F09366
:103170005E03E0935D032A8D3B8D309360032093C3
:103180005F03AE8DBF8DB0936203A0936103ECA18A
:10319000FDA1F0936403E093630328A539A5309360
:1031A000660320936503ACA5BDA5B0936803A09307
:1031B000670350926A034092690390926C03809275
:1031C0006B03D0926E03C0926D0370937003609393
:1031D0006F038091B7039091B803029721F460E0E8
:1031E00089E30E94540460E083E20E9454046FE685
:1031F00080E20E94540480919B0390919C03833051
:10320000910509F0D2C060E081E20E94490467E5BF
:1032100080E20E94490464E684E20E94490460E27C
:1032200085E20E94490460E086E20E94490446EB80
:1032300060EE89E593E00E94730483E0809372035B
:1032400081E090E0A6CE8AE60E9448078F3F98076B
:1032500009F4D2C5873D910541F081E090E030E06E
:1032600020E0E5CE81E090E0E0CE82E090E0F7CF94
:1032700090E080E0DACE88E62130310509F0E4CE36
:1032800089E6E2CE6FE070E08EE10E94220721E045
:1032900030E0CC9709F0E0C582E090E090939C0389
:1032A00080939B038130910509F45CC0029779F10A
:1032B00088E12130310509F489E180939D038EE195
:1032C00080939E0383E090E09093A2038093A103F8
:1032D00084E090E09093A4038093A30385E090E0C2
:1032E0009093A6038093A50386E090E09093A803B3
:1032F0008093A70387E090E09093AA038093A903AB
:1033000028E030E03093AC032093AB03E0CE89E1BA
:1033100080939D038EE180939E0383E090E09093E1
:10332000A2038093A10384E090E09093A403809390
:10333000A30387E090E09093A6038093A503A8E001
:10334000B0E0B093A803A093A70385E090E090932A
:10335000AA038093A90386E090E09093AC03809346
:10336000AB03B5CE88E12130310509F489E18093C2
:103370009D038EE180939E0383E090E09093A203EF
:103380008093A10384E090E09093A4038093A3032F
:1033900087E090E09093A6038093A503E8E0F0E037
:1033A000F093A803E093A703D0CF0297A9F468E0B5
:1033B00083E20E942A0467E480E20E942A046CE00F
:1033C00080E00E940B0460E281E00E940B0460E058
:1033D00082E00E940B042BCF60E083E20E942A046B
:1033E00067E2EACF8130910509F0F8C0C090DA01B8
:1033F000D090DB01E090DC01F090DD01C114D1043C
:10340000E104F10409F0A7C069E070E08DEB93E0FE
:103410000E94DE0466E070E080EC93E00E94DE042F
:1034200065E070E083EC93E00E94DE0463E070E00E
:1034300086EC93E00E94DE0468E077E08DEB93E099
:103440000E94A70468E077E080EC93E00E94A70464
:1034500068E077E083EC93E00E94A70468E077E0FF
:1034600086EC93E00E94A7040E942A036093DA018D
:103470007093DB018093DC019093DD010E942A03AD
:10348000009100011091010120910201309103018E
:10349000601771078207930770F00E942A036C502F
:1034A0007E4F8F4F9F4F6093000170930101809377
:1034B0000201909303010E942A03AB01BC01809199
:1034C000000190910101A0910201B09103018A5F76
:1034D0009109A109B10911E084179507A607B7075B
:1034E00008F010E010931D0280911B0290911C02C5
:1034F00060E0009721F061E0019709F0612F8FE013
:103500000E94B9028091190290911A0260E000971E
:1035100021F061E0019709F0612F81E10E94B90279
:10352000809117029091180260E0009721F061E00D
:10353000019709F0612F80E10E94B90280E090E0DC
:10354000892B09F48BCC0E941102882309F486CCC4
:103550000E94000083CC0E942A039701860108572D
:103560001C4E2F4F3F4F061717072807390720F427
:103570008091D9018823B1F00E942A03B0E1CB0EDB
:10358000B7E2DB1EE11CF11CC616D706E806F906F9
:1035900008F074CF8091D901882309F46FCF82E0BD
:1035A00090E0F7CC60E273E08DEB93E00E94A7041B
:1035B00060E273E080EC93E00E94A70460E273E0B5
:1035C00083EC93E00E94A70460E273E086EC93E052
:1035D0000E94A70481E08093D90150CF82309105E9
:1035E00051F48091140290911502019709F046CF91
:1035F00083E090E0CECC8330910571F50091DE013F
:103600001091DF010115110559F40E942A037093EE
:10361000DF016093DE0182E090E00E94D60F2ECFA2
:103620000E942A03601B710B85E190E064367105EE
:1036300008F0AFCC8091140290911502039709F025
:103640001DCF80911202909113020817190709F0FB
:1036500015CF84E090E09DCC8430910509F011C134
:103660000E94CB10E0EEF1E081E09081989FC001D4
:1036700011244181489F9001499F300D11244281BE
:10368000429FC001439F900D1124817033962CEE10
:1036900031E02E173F0749F7882309F4EFCE85E084
:1036A00090E00E94571009EC13E0BB24B39480E033
:1036B00090E0A1EEB4ECF80182AB93ABA4ABB5AB58
:1036C00080E090E0A1EEB4E486AB97ABA0AFB1AFE1
:1036D00082AD882309F453C0E68CF78CD7014D9056
:1036E0005D906D907C9020E030E041EE54E4C301A9
:1036F000B2010E94C922181624F580E090E0A1EEE4
:10370000B4E4F70180839183A283B383D8019696B2
:103710004D905D906D907C909997D696CD90DD9070
:10372000ED90FC90D997A7019601C301B2010E94C8
:10373000C9221816ACF4F801C6A2D7A2E0A6F1A6D9
:103740001EC020E030E041EE54ECC301B2010E9403
:103750005D1F87FFDBCF80E090E0A1EEB4ECD1CF1E
:10376000D801D296CD90DD90ED90FC90D597A70131
:103770009601C301B2010E945D1F87FDDCCFD80115
:103780009E966D917D918D919C91D1970E94621F23
:103790009B01AC0160E070E080EA91E40E94FA21B4
:1037A0006B017C01AC019B01F80160897189828900
:1037B00093890E94C31FD80150966D937D938D937A
:1037C0009C935397A701960154966D917D918D918D
:1037D0009C9157970E94FA21F801648B758B868B18
:1037E000978B84E190E0A0E0B0E086A797A7A0AB1C
:1037F000B1AB82AD81113BC0068CF78DE02DC0804E
:10380000D180E280F380D8019696CD92DD92ED9240
:10381000FC9299975C96ED91FC9180819181A281B7
:10382000B381F80182A793A7A4A7B5A746A857A874
:1038300060AC71ACA3019201C701B6010E94C9221C
:10384000181644F4D80196964D925D926D927C9232
:1038500099970DC0F80142A853A864A875A8A301C0
:103860009201C701B6010E945D1F87FDEBCFF801F1
:10387000B2AE045C1F4FF4E0093B1F0709F017CFFD
:10388000FDCD8530910509F4F9CD8630910521F5FE
:103890000E94CB100E941D0D0E945C080E948310A4
:1038A0000E946F1080911402909115028639910543
:1038B00081F48091120290911302909301028093FF
:1038C000000210921502109214021092130210922C
:1038D00012020E946305D2CD8730910509F0B9C06C
:1038E00000910E0210910F021A8A1B8A1C8A1D8AEF
:1038F000C12CD12C7601460157012AA13BA1283CBD
:1039000031050CF072C00E946A076091B00370919B
:10391000B103072E000C880B990B0E94641F9B01BA
:10392000AC01C501B4010E941C214B015C016091F6
:10393000B2037091B303072E000C880B990B0E9401
:10394000641F9B01AC01C701B6010E941C216B01E1
:103950007C016091B4037091B503072E000C880BB5
:10396000990B0E94641F9B01AC016A897B898C8939
:103970009D890E941C216A8B7B8B8C8B9D8B0E9466
:1039800005032B013C018AE090E0A0E0B0E08E8BC3
:103990009F8BA88FB98F0E9405036419750986094A
:1039A0009709683E734081059105A8F38E899F8928
:1039B000A88DB98D0197A109B1098E8B9F8BA88F16
:1039C000B98F98EE490E93E0591E611C711C8E89C7
:1039D0009F89A88DB98D892B8A2B8B2BE1F6EAA1C3
:1039E000FBA13196FBA3EAA388CF20E030E048E4B6
:1039F00053E4C501B4010E94FA216093EC01709375
:103A0000ED018093EE019093EF0120E030E048E477
:103A100053E4C701B6010E94FA216093F00170934C
:103A2000F1018093F2019093F30120E030E048E44B
:103A300053E46A897B898C899D890E94FA2160936D
:103A4000F4017093F5018093F6019093F701C8019A
:103A5000A0CA88309105F9F40E949201BC01990F27
:103A6000880B990B0E94641F21E338E04CEA5CE369
:103A70000E94C31F20E030E048EC52E40E94C31FC4
:103A80000E946C2288E993E00E94D60F80910E027A
:103A900090910F027ECA0A9709F0F0CC81E08093E2
:103AA00016020E941D0D0E945C080E9483100E9455
:103AB0006F100E94CB1080911402909115028639EC
:103AC000910581F48091120290911302909301026A
:103AD00080930002109215021092140210921302A9
:103AE0001092120280911602882309F4F2CE1092ED
:103AF00071051092720510927305109274058091F1
:103B0000020290910302A0910402B09105028093F9
:103B10007D0590937E05A0937F05B09380058091ED
:103B2000060290910702A0910802B09109028093C9
:103B3000890590938A05A0938B05B0938C0510920C
:103B4000950510929605109297051092980589ECAC
:103B5000682E83E0782ED301DA968C91882309F4BD
:103B6000FCC00E942A036E8B7F8B888F998FF30194
:103B700082A193A1A4A1B5A14E895F89688D798D99
:103B8000481B590B6A0B7B0B86A597A5A0A9B1A969
:103B9000481759076A077B0708F4DFC0048CF58DC6
:103BA000E02D80819181A281B3818A8B9B8BAC8B2C
:103BB000BD8BD3019096ED91FC912A893B894C896C
:103BC0005D8960817181828193810E941B216B01DB
:103BD0007C01F30122A533A544A555A56A897B89FB
:103BE0008C899D890E941B216A8F7B8F8C8F9D8F72
:103BF000D30150962D913D914D915C915397C70102
:103C0000B6010E94C31FF30126A137A140A551A50B
:103C10000E941C214B015C01D30196968D929D92CE
:103C2000AD92BC929997DB965C90DB97511017C0D0
:103C30001C962D913D914D915C911F976A8D7B8DC6
:103C40008C8D9D8D0E94C31F9B01AC01C501B401E9
:103C50000E941B21F30166A377A380A791A7D3013C
:103C600096968D919D910D90BC91A02D8E8F9F8FDA
:103C7000A8A3B9A3F30126A837A800AD11AD9101FF
:103C8000A801BC01CD010E94C92218160CF099C0F0
:103C9000C101D801F30186A397A3A0A7B1A755201E
:103CA00009F4A6C0D3011C962D913D914D915C91D4
:103CB0001F97C701B6010E94C31F6B017C01F3016E
:103CC00024893589468957896A8D7B8D8C8D9D8D98
:103CD0000E94C31F9B01AC01D30196966D917D910B
:103CE0008D919C9199970E941B21A70196010E949A
:103CF0001C216B017C019B01AC01B101C8010E9438
:103D00005D1F87FD0FC0F30122A833A804A915A9E0
:103D10009101A801B601C7010E945D1F87FD02C085
:103D200016018701D3015E96ED91FC91C101D80186
:103D300080839183A283B3838A899B89AC89BD895F
:103D4000F30182A793A7A4A7B5A78E899F89A88D01
:103D5000B98D82A393A3A4A3B5A3FCE36F0E711C3A
:103D600029EB34E02615370509F0F5CE609175058D
:103D70007091760580917705909178050E946C226C
:103D80007093F9016093F80160918105709182054B
:103D900080918305909184050E946C227093FB01B1
:103DA0006093FA0160918D0570918E0580918F0569
:103DB000909190050E946C227093FD016093FC012C
:103DC00088CDD301D2968D909D90AD90BC90D59723
:103DD000A50194016E8D7F8D88A199A10E945D1F20
:103DE00087FF5DCFF30186A297A2A0A6B1A657CF09
:103DF000C12CD12C760163CF89E60E944807833D10
:103E0000910509F435CA88E60E944807833D91056B
:103E100009F01CC990E080E022CA60E270E089E10C
:103E20000E942207019609F02DCA60E270E088E145
:103E30000E942207019609F44AC96FE070E08EE102
:103E40000E94220731E020E0CC9709F030E0832F78
:103E5000922F30E020E022CA90E080E01FCA83E089
:103E600090E090939C0380939B038DE108C9FC0133
:103E700088279927E89421912032E9F3293010F01E
:103E80002E30C8F32B3241F02D3239F4689404C03F
:103E90000E94551F820F911D219120532A30C0F39B
:103EA0001EF4909581959F4F08957AE0979F902DED
:103EB000879F802D910D112408950E949F1F08F463
:103EC00081E00895E89409C097FB3EF490958095B1
:103ED000709561957F4F8F4F9F4F9923A9F0F92FD0
:103EE00096E9BB279395F695879577956795B7954E
:103EF000F111F8CFFAF4BB0F11F460FF1BC06F5F34
:103F00007F4F8F4F9F4F16C0882311F096E911C045
:103F1000772321F09EE8872F762F05C0662371F066
:103F200096E8862F70E060E02AF09A95660F771F7A
:103F3000881FDAF7880F9695879597F90895990F56
:103F40000008550FAA0BE0E8FEEF16161706E80763
:103F5000F907C0F012161306E407F50798F0621B84
:103F6000730B840B950B39F40A2661F0232B242B59
:103F7000252B21F408950A2609F4A140A6958FEF78
:103F8000811D811D08950E94D61F0C9447200E9418
:103F9000392038F00E94402020F0952311F00C9435
:103FA00030200C94362011240C947B200E94582041
:103FB00070F3959FC1F3950F50E0551F629FF0017C
:103FC000729FBB27F00DB11D639FAA27F00DB11D95
:103FD000AA1F649F6627B00DA11D661F829F22271E
:103FE000B00DA11D621F739FB00DA11D621F839FA5
:103FF000A00D611D221F749F3327A00D611D231F7B
:10400000849F600D211D822F762F6A2F11249F57C8
:1040100050409AF0F1F088234AF0EE0FFF1FBB1FCB
:10402000661F771F881F91505040A9F79E3F51058A
:1040300080F00C9430200C947B205F3FE4F3983E9A
:10404000D4F3869577956795B795F795E7959F5F34
:10405000C1F7FE2B880F911D9695879597F90895C6
:1040600097F99F6780E870E060E008959FEF80EC2B
:10407000089500240A9416161706180609060895CE
:1040800000240A9412161306140605060895092E34
:104090000394000C11F4882352F0BB0F40F4BF2BA3
:1040A00011F460FF04C06F5F7F4F8F4F9F4F0895E3
:1040B00057FD9058440F551F59F05F3F71F04795D9
:1040C000880F97FB991F61F09F3F79F087950895BE
:1040D000121613061406551FF2CF4695F1DF08C0DD
:1040E000161617061806991FF1CF869571056105FA
:1040F00008940895E894BB2766277727CB0197F9A2
:104100000895052E97FB1EF400940E94982057FDF9
:1041100007D00E94EA2007FC03D04EF40C949820AC
:1041200050954095309521953F4F4F4F5F4F0895E3
:1041300090958095709561957F4F8F4F9F4F089513
:104140000E940C21A59F900DB49F900DA49F800DFF
:10415000911D11240895B7FF0C94A0200E94A02067
:10416000821B930B08952F923F924F925F926F9212
:104170007F928F929F92AF92BF92CF92DF92EF92F7
:10418000FF920F931F93CF93DF93CDB7DEB7CA1B78
:10419000DB0B0FB6F894DEBF0FBECDBF09942A88A3
:1041A000398848885F846E847D848C849B84AA844B
:1041B000B984C884DF80EE80FD800C811B81AA81D8
:1041C000B981CE0FD11D0FB6F894DEBF0FBECDBFA3
:1041D000ED010895A1E21A2EAA1BBB1BFD010DC023
:1041E000AA1FBB1FEE1FFF1FA217B307E407F507A7
:1041F00020F0A21BB30BE40BF50B661F771F881F83
:10420000991F1A9469F760957095809590959B0118
:10421000AC01BD01CF010895A29FB001B39FC001C1
:10422000A39F700D811D1124911DB29F700D811DE2
:104230001124911D08955058BB27AA270E943321AD
:104240000C9447200E94392038F00E94402020F032
:1042500039F49F3F19F426F40C9436200EF4E095BF
:10426000E7FB0C943020E92F0E94582058F3BA172E
:10427000620773078407950720F079F4A6F50C947C
:104280007A200EF4E0950B2EBA2FA02D0B01B90168
:1042900090010C01CA01A0011124FF27591B99F0BC
:1042A000593F50F4503E68F11A16F040A22F232FC8
:1042B000342F4427585FF3CF469537952795A79518
:1042C000F0405395C9F77EF41F16BA0B620B730BBF
:1042D000840BBAF09150A1F0FF0FBB1F661F771F30
:1042E000881FC2F70EC0BA0F621F731F841F48F4E5
:1042F000879577956795B795F7959E3F08F0B0CF6E
:104300009395880F08F09927EE0F97958795089554
:104310000E94392060F080E891E009F49EEF0E944D
:10432000402028F040E851E071F45EEF0CC00C949E
:1043300036200C947A20E92FE0780E94582040F330
:10434000092E052AB1F3261737074807590738F011
:104350000E2E07F8E02569F0E025E0640AC0EF635F
:1043600007F8009407FADB01B9019D01DC01CA01DD
:10437000AD01EF930E9411220E9447200E94CB21A1
:104380005F91552339F02BED3FE049E450FD49ECB6
:104390000C941C210895DF93DD27B92FBF7740E8E7
:1043A0005FE31616170648075B0718F4D92F0E941B
:1043B000CE229F938F937F936F930E946C23E8E6A6
:1043C000F0E00E94A2220E9447202F913F914F913E
:1043D0005F910E94D61FDD2351F09058A2EA2AED8A
:1043E0003FE049EC5FE3D0785D270E943321DF9105
:1043F0000C9447200E940E220C9447200E944020DB
:1044000058F00E94392040F029F45F3F29F00C94C5
:10441000302051110C947B200C9436200E9458209F
:1044200068F39923B1F3552391F3951B550BBB27E3
:10443000AA2762177307840738F09F5F5F4F220F28
:10444000331F441FAA1FA9F335D00E2E3AF0E0E81F
:1044500032D091505040E695001CCAF72BD0FE2F69
:1044600029D0660F771F881FBB1F261737074807FD
:10447000AB07B0E809F0BB0B802DBF01FF279358B5
:104480005F4F3AF09E3F510578F00C9430200C9429
:104490007B205F3FE4F3983ED4F38695779567954C
:1044A000B795F7959F5FC9F7880F911D96958795EA
:1044B00097F90895E1E0660F771F881FBB1F621709
:1044C00073078407BA0720F0621B730B840BBA0BC7
:1044D000EE1F88F7E09508950E9473226894B11149
:1044E0000C947B2008950E94602088F09F5798F0DC
:1044F000B92F9927B751B0F0E1F0660F771F881FE9
:10450000991F1AF0BA95C9F714C0B13091F00E9402
:104510007A20B1E008950C947A20672F782F8827AD
:10452000B85F39F0B93FCCF3869577956795B39529
:10453000D9F73EF490958095709561957F4F8F4F98
:104540009F4F0895DF93CF931F930F93FF92EF92A6
:10455000DF927B018C01689406C0DA2EEF010E9485
:10456000D61FFE01E894A59125913591459155916D
:10457000A6F3EF010E943321FE019701A801DA940E
:1045800069F7DF90EF90FF900F911F91CF91DF912E
:1045900008950E949F1F08F48FEF08959B01AC01BE
:1045A00060E070E080E89FE30C94FA21FA01EE0FDE
:1045B000FF1F309621053105A1F16115710561F4E8
:1045C0008038BFE39B0749F168949038810561F01A
:1045D0008038BFEF9B0741F099234AF5FF3FE10583
:1045E0003105210519F1E8940894E795D901AA232A
:1045F00029F4AB2FBE2FF85FD0F310C0FF5F70F42B
:10460000A695E0F7F73950F019F0FF3A38F49F77A4
:104610009F930DD00F9007FC9058089546F00C948E
:10462000362060E070E080E89FE308954FE79F77D1
:104630005F934F933F932F930E9401242F913F91BB
:104640004F915F910E94C31F0C94782319F416F4C4
:104650000C9436200C94AA230E946020B8F399236E
:10466000C9F3B6F39F57550B87FF0E94B823002468
:10467000A0E640EA900180585695979528F4805C12
:10468000660F771F881F20F026173707480730F47A
:10469000621B730B840B202931294A2BA695179492
:1046A0000794202531254A2758F7660F771F881F62
:1046B00020F026173707480730F4620B730B840B82
:1046C000200D311D411DA09581F7B901842F91580E
:1046D000880F9695879508959B01AC010C94C31F94
:1046E00029F416F00C9430200C947A200C94362087
:1046F0000E946020A8F39638A0F707F80F92E8947C
:104700002BE33AEA48EB5FE70E94D91F0F920F9222
:104710000F924DB75EB70F920E944924E5E9F0E091
:104720000E94A2224F915F91EF91FF91E595EE1FBC
:10473000FF1F49F0FE57E0684427EE0F441FFA952B
:10474000E1F74195550B0E94C3230F9007FE0C948F
:10475000CE2208959F3F31F0915020F487957795B0
:104760006795B795880F911D9695879597F9089548
:1047700091505040660F771F881FD2F708950C9410
:1047800030200C94AA230E946020D8F39923C9F307
:10479000940F511DA3F39150504094F059F0882389
:1047A00032F0660F771F881F91505040C1F79E3F2F
:1047B00051052CF7880F911D9695879597F90895C7
:1047C0005F3FACF0983E9CF0BB2786957795679548
:1047D000B79508F4B1609395C1F7BB0F58F711F482
:1047E00060FFE8CF6F5F7F4F8F4F9F4FE3CF0C94F9
:1047F0007B2016F00C94AA230C94362068940C9419
:1048000030200E946020A8F39923C1F3AEF3DF9318
:10481000CF931F930F93FF92C92FDD2788232AF090
:104820002197660F771F881FDAF720E030E040E815
:104830005FEB9FE3883920F0803E38F021968F7738
:104840000E941C21EDEBF0E004C00E941C21EAEE66
:10485000F0E00E94A2228B01BE01EC01FB2E6F57FB
:1048600071097595771F880B990B0E94641F28E1C9
:1048700032E741E35FE30E94D61FAF2D9801AE01FE
:10488000FF900F911F91CF91DF910E9433210C94E3
:104890004720FA01DC01AA0FBB1F9B01AC01BF57E7
:1048A00028F4222733274427507820C0B75190F4AA
:1048B000AB2F0024469537952795011CA395D2F37D
:1048C000002071F0220F331F441FB395DAF30ED08E
:1048D0000C941B2161307105A0E88A07B94630F4B9
:1048E0009B01AC016627772788279078309621F0C6
:1048F00020833183428353830895DB018F939F93F9
:104900000E94A020BF91AF91A29F800D911DA39FF7
:10491000900DB29F900D11240895991B79E004C069
:10492000991F961708F0961B881F7A95C9F78095EE
:104930000895AA1BBB1B51E107C0AA1FBB1FA617E6
:10494000B70710F0A61BB70B881F991F5A95A9F738
:1049500080959095BC01CD010895EE0FFF1F059045
:10496000F491E02D09940F931F93CF93DF9382303E
:10497000910510F482E090E0E0910B06F0910C06B6
:1049800030E020E0B0E0A0E0309799F42115310547
:1049900009F44AC0281B390B24303105D8F58A8127
:1049A0009B816115710589F1FB0193838283FE016F
:1049B00011C0408151810281138148175907E0F0ED
:1049C0004817590799F4109761F012960C931297B3
:1049D00013961C933296CF01DF91CF911F910F91C7
:1049E000089500930B0610930C06F4CF21153105A2
:1049F00051F04217530738F0A901DB019A01BD01BC
:104A0000DF01F801C1CFEF01F9CF90930C0680933D
:104A10000B06CDCFFE01E20FF31F8193919322503D
:104A2000310939832883D7CF2091090630910A06AE
:104A3000232B41F4209106013091070130930A069F
:104A400020930906209104013091050121153105BB
:104A500041F42DB73EB74091080150910901241B44
:104A6000350BE0910906F0910A06E217F307A0F46E
:104A70002E1B3F0B2817390778F0AC014E5F5F4FB4
:104A80002417350748F04E0F5F1F50930A064093D6
:104A90000906819391939FCFF0E0E0E09CCFCF9304
:104AA000DF930097E9F0FC01329713821282A09104
:104AB0000B06B0910C06ED0130E020E01097A1F458
:104AC00020813181820F931F2091090630910A06BF
:104AD0002817390709F061C0F0930A06E093090628
:104AE000DF91CF910895EA01CE17DF07E8F54A81FB
:104AF0005B819E0141155105B1F7E901FB83EA8312
:104B000049915991C40FD51FEC17FD0761F48081BD
:104B100091810296840F951FE90199838883828190
:104B200093819B838A83F0E0E0E012968D919C91C3
:104B300013970097B9F52D913C911197CD010296ED
:104B4000820F931F2091090630910A062817390712
:104B500039F6309751F510920C0610920B06B0936F
:104B60000A06A0930906BCCFD383C283408151813A
:104B7000840F951FC817D90761F44E5F5F4F888176
:104B80009981480F591F518340838A819B81938368
:104B900082832115310509F0B0CFF0930C06E09324
:104BA0000B069ECFFD01DC01C0CF13821282D7CF4E
:104BB00081E090E0F8940C947E28AEE0B0E0E3EE63
:104BC000F5E20C94C1200D891E8986E08C831A833E
:104BD00009838FEF9FE79E838D83AE01475E5F4F12
:104BE0006F89788DCE0101960E9400262F8138852D
:104BF000020F131FF80110822E96E4E00C94DD20C2
:104C0000ABE0B0E0E6E0F6E20C94B3207C013B01BF
:104C10008A01FC0117821682838181FFC8C1CE01FF
:104C200001965C01F7019381F30193FD859193FF58
:104C300081913F01882309F453C1853239F493FDF2
:104C4000859193FF81913F01853229F4B70190E06E
:104C50000E94F027E7CF912C212C312CFFE1F31596
:104C600038F08B3211F190F4803209F1833229F15E
:104C700037FC3CC020ED280F2A3050F536FE20C00E
:104C80008AE0989E200D1124922E06C08D3291F05C
:104C9000803371F7689430F8F30193FD859193FFA9
:104CA00081913F018111DACF21C0689431F8689475
:104CB00032F8F2CF689433F8EFCF689434F8ECCF41
:104CC000EAE02E9E200D1124222E689435F8E4CFC0
:104CD0008E3229F436FC04C1689436F8DDCF8C3668
:104CE00019F4689437F8D8CF8836B1F2982F9F7DA1
:104CF00095549330E0F08336A1F18337C1F18335C9
:104D000009F063C02801F2E04F0E511CF801C08089
:104D1000D180692D70E036FC02C06FEF7FEFC601D5
:104D20000E94DA274C01689437F882010AC00C5FB0
:104D30001F4FFFE3F98388248394912C6501E89445
:104D400037F833FE2DC0522C8114910471F5552093
:104D500009F468CFB70180E290E00E94F0275A94EE
:104D6000F6CFF801808189830E5F1F4FE4CF2801C1
:104D7000F2E04F0E511CF801C080D180692D70E027
:104D800036FC02C06FEF7FEFC6010E94E5274C01A1
:104D90008201D5CFB70180E290E00E94F0272A94EB
:104DA0002814190409F0B0F7CECFF60137FC85912D
:104DB00037FE81916F01B70190E00E94F0275110FA
:104DC0005A94F1E08F1A9108BFCF843619F08936D2
:104DD00009F077C0F80137FE6BC060817181828174
:104DE00093810C5F1F4FF32DFF763F2E97FF09C075
:104DF00090958095709561957F4F8F4F9F4F6894E8
:104E000037F82AE030E0A5010E942028C82ECA18F1
:104E10008C2C432C36FE0CC0E89440F8C91440F4A6
:104E200034FE05C032FC03C0F32DFE7E4F2E892CCC
:104E300044FE95C0FE01EC0DF11D8081803309F028
:104E400087C0242D297E422E842D8870582E43FC45
:104E500095C040FE8FC09C2C821418F42C0C922C10
:104E6000981844FE91C0B70180E390E00E94F027BB
:104E700042FE09C088E790E041FE02C088E590E06C
:104E8000B7010E94F027C91408F48AC0CA94D12C33
:104E90009FEFC91AD90ACA0CDB1CF60182916F0177
:104EA000B70190E00E94F027AC14BD04B1F74FCFDA
:104EB00060817181072E000C880B990B0E5F1F4FCC
:104EC00092CFD32CE894D4F82AE030E0853739F13A
:104ED000232D297FD22E8F3601F148F48835A9F091
:104EE000F701868197812B96E2E10C94CF208037E1
:104EF00049F08837A9F7D4FE02C06894D2F820E1BF
:104F000030E00DC06894D4F8F6CF34FE03C0822F91
:104F10008660D82E20E132E002C028E030E0F801BF
:104F2000D7FE0FC060817181828193810C5F1F4F1A
:104F3000A5010E942028C82ECA183D2CE89437F8F5
:104F400067CF6081718190E080E00E5F1F4FF0CFEE
:104F500042FC02C0839478CF8394839475CF842DD0
:104F6000867809F471CFF6CFB70180E290E00E9415
:104F7000F02783948214C0F3512C73CF522C58180D
:104F8000821408F46ECFF8CF842D867809F47BCF95
:104F90008BE241FE80E247FC8DE2B70190E071CFE9
:104FA000B70180E390E00E94F0279A946CCF8FEFD6
:104FB0009FEF99CFFC010590615070400110D8F728
:104FC000809590958E0F9F1F0895FC016150704051
:104FD00001900110D8F7809590958E0F9F1F08952E
:104FE0000F931F93CF93DF93182F092FEB018B8122
:104FF00081FD09C01FEF0FEF812F902FDF91CF911F
:105000001F910F91089582FF14C02E813F818C81E2
:105010009D81281739073CF4E881F981CF01019679
:105020009983888310838E819F8101969F838E83CD
:10503000E3CFE885F985812F0995892BA1F3DACF94
:10504000FA01AA27283051F1203181F1E8946F93B9
:105050006E7F6E5F7F4F8F4F9F4FAF4FB1E03ED05F
:10506000B4E03CD0670F781F891F9A1FA11D680FFD
:10507000791F8A1F911DA11D6A0F711D811D911D30
:10508000A11D20D009F468943F912AE0269F1124A5
:105090003019305D3193DEF6CF010895462F477009
:1050A000405D4193B3E00FD0C9F7F6CF462F4F7064
:1050B000405D4A3318F0495D31FD4052419302D0C2
:1050C000A9F7EACFB4E0A695979587957795679568
:1050D000BA95C9F700976105710508959B01AC0168
:1050E0000A2E06945795479537952795BA95C9F78F
:1050F000620F731F841F951FA01D0895F894FFCFA2
:10510000F401000000000D06800001800180018094
:10511000FF7FFF7FFF7F673B3030303B30303030E8
:1051200030303030303030303030303B653B000094
:1051300000004702A701D40199020502E301F7012B
:1051400000000000D903AC03A4049C038B0165019B
:105150009D03000000006A03260AA3012C08D10762
:085160007304253033690000DF
:107E0000112484B714BE81FFF0D085E080938100F7
:107E100082E08093C00088E18093C10086E0809377
:107E2000C20080E18093C4008EE0C9D0259A86E02C
:107E300020E33CEF91E0309385002093840096BBD3
:107E4000B09BFECF1D9AA8958150A9F7CC24DD24C4
:107E500088248394B5E0AB2EA1E19A2EF3E0BF2EE7
:107E6000A2D0813461F49FD0082FAFD0023811F036
:107E7000013811F484E001C083E08DD089C08234E0
:107E800011F484E103C0853419F485E0A6D080C0E4
:107E9000853579F488D0E82EFF2485D0082F10E0AE
:107EA000102F00270E291F29000F111F8ED06801E7
:107EB0006FC0863521F484E090D080E0DECF843638
:107EC00009F040C070D06FD0082F6DD080E0C81688
:107ED00080E7D80618F4F601B7BEE895C0E0D1E017
:107EE00062D089930C17E1F7F0E0CF16F0E7DF06D8
:107EF00018F0F601B7BEE89568D007B600FCFDCFD4
:107F0000A601A0E0B1E02C9130E011968C91119780
:107F100090E0982F8827822B932B1296FA010C0160
:107F200087BEE89511244E5F5F4FF1E0A038BF0790
:107F300051F7F601A7BEE89507B600FCFDCF97BE46
:107F4000E89526C08437B1F42ED02DD0F82E2BD052
:107F50003CD0F601EF2C8F010F5F1F4F84911BD097
:107F6000EA94F801C1F70894C11CD11CFA94CF0C13
:107F7000D11C0EC0853739F428D08EE10CD085E9AC
:107F80000AD08FE07ACF813511F488E018D01DD067
:107F900080E101D065CF982F8091C00085FFFCCF94
:107FA0009093C60008958091C00087FFFCCF809118
:107FB000C00084FD01C0A8958091C6000895E0E648
:107FC000F0E098E1908380830895EDDF803219F02E
:107FD00088E0F5DFFFCF84E1DECF1F93182FE3DFCA
:107FE0001150E9F7F2DF1F91089580E0E8DFEE27F6
:047FF000FF270994CA
:027FFE00040479
:0400000300007E007B
:00000001FF
