:100000000C94B5000C94DD000C94DD000C94DD0024
:100010000C94DD000C94DD000C94DD000C94DD00EC
:100020000C94DD000C94DD000C94DD000C94921116
:100030000C94DD000C94DD000C94DD000C94DD00CC
:100040000C9429100C94DD000C94F70F0C94D10F34
:100050000C94DD000C94DD000C94DD000C94DD00AC
:100060000C9473100C94DD00084AD73B3BCE016E14
:1000700084BCBFFDC12F3D6C74319ABD56833DDAFF
:100080003D00C77F11BED9E4BB4C3E916BAAAABE0E
:10009000000000803F07634236B79BD8A71A396833
:1000A0005618AEBAAB558C1D3CB7CC5763BD6DED41
:1000B000FD753EF6177231BF000000803F0800005A
:1000C00000BE922449123EABAAAA2ABECDCCCC4C8B
:1000D0003E00000080BEABAAAAAA3E00000000BFFE
:1000E000000000803F0000000000084178D3BB43BF
:1000F00087D1133D190E3CC3BD4282AD2B3E68EC47
:100100008276BED98FE1A93E4C80EFFFBE01C4FFCD
:100110007F3F000000000000000000080002010016
:1001200000030407000000000000000000000000C1
:10013000250028002B0000000000240027002A00D2
:10014000040404040404040402020202020203037D
:100150000303030301020408102040800102040885
:1001600010200102040810204E1211241FBECFEFF0
:10017000D8E0DEBFCDBF11E0A0E0B1E0E2EFF7E4F0
:1001800002C005900D92A235B107D9F725E0A2E58E
:10019000B1E001C01D92A63CB207E1F710E0C5EB4B
:1001A000D0E004C02197FE010E945021C43BD1073A
:1001B000C9F70E94C4130C94F7230C94000090E03C
:1001C000FC01EC5AFE4F2491805C9E4FFC0184910F
:1001D000882399F090E0880F991FFC01EA5CFE4F9C
:1001E000A591B491FC01E45DFE4F859194918FB788
:1001F000F894EC91E22BEC938FBF0895209170025C
:1002000081E0213208F044C080914C028111FCCF82
:1002100080916F0292E090934C0291E090934B0298
:100220009FEF90934A021092490220934802AFE454
:10023000B2E0E8E2F2E090E0291331C01092270228
:1002400090912702880F892B8093270280912602A4
:10025000813049F510922602809127028093BB00DD
:100260008091BC0083FDF8CF85EC8093BC00809129
:100270004C028230E1F380914A028F3FB1F08091CD
:100280004A028032A1F080914A02803391F084E0EA
:1002900010924E021092700210924D0208953D91FC
:1002A00031939F5FC9CF85EEE0CF80E0F1CF82E050
:1002B000EFCF83E0EDCF91E090934D0280936F02FA
:1002C00010924E0210927002089590912502809132
:1002D00024022FEF3FEF981748F4E92FF0E0EC5F8E
:1002E000FD4F208130E09F5F90932502C901089562
:1002F00090912502809124022FEF3FEF981748F448
:10030000E92FF0E0EC5FFD4F208130E09F5F90939C
:100310002502C90108958091240290912502891B2C
:10032000990B089580E480937C0080917A0080642A
:1003300080937A0080917A0086FDFCCF80917800CE
:1003400090917900089508950895AF92BF92CF9249
:10035000DF92EF92FF920F931F93CF93DF936C0185
:100360007B018B01040F151FEB015E01AE18BF0866
:10037000C017D10759F06991D601ED91FC91019018
:10038000F081E02DC6010995892B79F7C501DF9130
:10039000CF911F910F91FF90EF90DF90CF90BF9082
:1003A000AF900895FC01538D448D252F30E0842FAC
:1003B00090E0821B930B541710F0CF96089501978D
:1003C0000895FC01918D828D981761F0A28DAE0F7A
:1003D000BF2FB11D5D968C91928D9F5F9F73928F01
:1003E00090E008958FEF9FEF0895FC01918D828D2D
:1003F000981731F0828DE80FF11D858D90E00895FA
:100400008FEF9FEF0895FC01918D228D892F90E051
:10041000805C9F4F821B91098F739927089581E714
:1004200092E00E94030221E0892B09F420E0822F50
:10043000089580E090E0892B29F00E940F0281113D
:100440000C9400000895FC01A48DA80FB92FB11DD4
:10045000A35ABF4F2C91848D90E001968F739927FA
:10046000848FA689B7892C93A089B1898C918370D8
:1004700080648C93938D848D981306C00288F389D1
:10048000E02D80818F7D80830895EF92FF920F93FE
:100490001F93CF93DF93EC0181E0888F9B8D8C8D30
:1004A00098131AC0E889F989808185FF15C09FB724
:1004B000F894EE89FF896083E889F98980818370E7
:1004C000806480839FBF81E090E0DF91CF911F9196
:1004D0000F91FF90EF900895F62E0B8D10E00F5FB7
:1004E0001F4F0F731127E02E8C8D8E110CC00FB68D
:1004F00007FCFACFE889F989808185FFF5CFCE0125
:100500000E942302F1CFEB8DEC0FFD2FF11DE35A7A
:10051000FF4FF0829FB7F8940B8FEA89FB898081A7
:100520008062CFCF682F81E792E00C944502CF9391
:10053000DF93EC01888D8823B9F0AA89BB89E8890B
:10054000F9898C9185FD03C0808186FD0DC00FB6B1
:1005500007FCF7CF8C9185FFF2CF808185FFEDCF2F
:10056000CE010E942302E9CFDF91CF91089590E060
:10057000FC01E85EFE4F2491FC01EC5AFE4F3491E1
:10058000FC01E05CFE4FE491EE23C9F0222339F038
:10059000233001F1A8F4213019F1223029F1F0E0E3
:1005A000EE0FFF1FE45DFE4FA591B4918FB7F89455
:1005B000EC91611126C030953E233C938FBF089586
:1005C0002730A9F02830C9F0243049F78091800005
:1005D0008F7D03C0809180008F7780938000DFCF74
:1005E00084B58F7784BDDBCF84B58F7DFBCF8091C1
:1005F000B0008F778093B000D2CF8091B0008F7D14
:10060000F9CF3E2BDACF3FB7F89480919F019091BC
:10061000A001A091A101B091A20126B5A89B05C09F
:100620002F3F19F00196A11DB11D3FBFBA2FA92F71
:10063000982F8827BC01CD01620F711D811D911D6E
:1006400042E0660F771F881F991F4A95D1F70895DA
:100650002FB7F89460919B0170919C0180919D014E
:1006600090919E012FBF089585ED8093BC008091ED
:10067000BC0084FDFCCF10924C02089520917701BC
:10068000260F3327331F21323105ECF420914C0221
:10069000FC0190E080E0243069F082E00895A091B0
:1006A00077012191AC01495A5E4FA40FB52FB11DBE
:1006B0002C930196861798F380917701680F6093C9
:1006C000770180E0089581E008950895E091250282
:1006D00080912402E81730F4F0E0EC5FFD4F808158
:1006E00090E008958FEF9FEF0895CF92DF92EF9201
:1006F000FF920F931F93CF93DF937C01CB018A016D
:1007000020914D02222389F0EB016B01C40ED51E0E
:10071000CC15DD0569F06991D701ED91FC9101904F
:10072000F081E02DC7010995F3CF642F0E943E03AD
:10073000C801DF91CF911F910F91FF90EF90DF9053
:10074000CF900895CF93DF931F92CDB7DEB7698323
:1007500020914D022223F9F020917002203258F0AE
:1007600021E030E0FC013383228390E080E00F90B1
:10077000DF91CF91089580914E02E82FF0E0E15B88
:10078000FD4F998190838F5F80934E02809370021A
:1007900081E090E0ECCF61E0CE0101960E943E0343
:1007A000F7CF0F931F93CF93DF93082F162FCFE32D
:1007B000D3E08C8D0E945B01602F8EE093E00E945D
:1007C000A203612F8EE093E00E94A2030E94FE002C
:1007D000888FDF91CF911F910F9108950F931F93F1
:1007E000CF93DF93082F162FCFE3D3E08B8D0E949A
:1007F0005B01602F8EE093E00E94A203612F8EE0E8
:1008000093E00E94A2030E94FE00888FDF91CF91A7
:100810001F910F910895209158033091590323306F
:10082000310511F40C94D1030C94EE030F931F9334
:10083000CF93DF93082F162FCDE6D3E089850E9452
:100840005B01602F8EE093E00E94A203612F8EE097
:1008500093E00E94A2030E94FE008E83DF91CF915D
:100860001F910F91089590E080E00895DC01EC91D4
:10087000EC3090F511968C91119728E830E0281B08
:10088000310987FD3395220F331F220F331F621763
:10089000730784F012968C9128E532E0281B310909
:1008A00087FD3395220F331F220F331F6217730703
:1008B0000CF49B0122503109220F331F4FB7F894DB
:1008C0008E2F90E0FC01EE0FFF1FE80FF91FE65E90
:1008D000FC4F328321834FBF08951F93CF93DF9343
:1008E000EC01162F88818C3008F04DC0862F0E94B5
:1008F000DF008881282F30E0F901EE0FFF1FE20FA3
:10090000F31FE65EFC4F1F736081607C612B608388
:1009100019821A822CE0622F0E943021829FB0013E
:10092000112430E020E0AB01420F531FFA01EE0F1B
:10093000FF1FE40FF51FE65EFC4F908196FD16C089
:100940002F5F3F4F2C30310571F781110FC010928E
:10095000800082E0809381001092850010928400D4
:10096000B19A80916F00826080936F00E8818E2F32
:1009700090E0FC01EE0FFF1FE80FF91FE65EFC4F51
:100980008081806480838881DF91CF911F91089559
:100990002091F6013091F701C90169E070E00E94F1
:1009A0003C21709302026093010249E0469FC0011E
:1009B000479F900D1124281B390BC90163E070E09B
:1009C0000E943C21709300026093FF01CB01880FCD
:1009D000991F680F791F261B370B3093FE01209358
:1009E000FD010895AF92BF92CF92DF92EF92FF92F6
:1009F0000F931F93CF93DF93CDB7DEB728970FB632
:100A0000F894DEBF0FBECDBF8091FC01882309F4AE
:100A100080C02091DE013091DF01205E3C4F80914B
:100A2000E6019091E701280F391FE091E001F09174
:100A3000E101B9016E0F7F1F4091E2015091E30186
:100A4000CB01840F951F9A838983641B750B7C836C
:100A50006B832E1B3F0BF901E41BF50BFE83ED832B
:100A6000240F351F38872F83803243E0940714F416
:100A700080E293E0861797070CF4CB018E179F074F
:100A80000CF4CF01821793070CF4C90120E2C22EA7
:100A900023E0D22E8235934024F092E5C92E93E0D4
:100AA000D92E8E010F5F1F4F8AE7E82E83E0F82EC4
:100AB0005E01F9E0AF0EB11CF801619171918F01F7
:100AC0006C157D0524F16930F7E07F0714F068E0CC
:100AD00077E0F801329771836083C7010E94360482
:100AE00023E0E20EF11CA016B10631F728960FB6EE
:100AF000F894DEBF0FBECDBFDF91CF911F910F9154
:100B0000FF90EF90DF90CF90BF90AF900895B60127
:100B1000E0CF64EF71E08AE793E00E94360464EF6F
:100B200071E08DE793E00E94360464EF71E080E8A5
:100B300093E00E94360464EF71E083E893E0289626
:100B40000FB6F894DEBF0FBECDBFDF91CF911F91DE
:100B50000F91FF90EF90DF90CF90BF90AF900C94EB
:100B600036044F925F926F927F928F929F92AF92D4
:100B7000BF92CF92DF92EF92FF920F931F93CF938A
:100B8000DF93CDB7DEB74C0127013801DC015F965A
:100B90005C934E935E975D967C936E935C97919673
:100BA0003C932E939097DA961C92FC0112AA13AAFA
:100BB00014AA15AA80E090E0AFE7B3E486AB97AB48
:100BC000A0AFB1AF84E690E0A0E0B0E086A797A721
:100BD000A0ABB1AB118E108E20E030E0A901C801AE
:100BE000B7010E94081C87FD53C020E030E0A90136
:100BF000C601B5010E94081C87FD4AC020E030E014
:100C0000A9016B897C898D899E890E94081C87FDBA
:100C10003FC081E090E0D4015B969C938E935A97FD
:100C2000DB968C93DB97F40140825182628273825F
:100C30001496AD92BD92CD92DC9217978B899C89C8
:100C4000AD89BE8980879187A287B3874486558600
:100C5000668677862DEC3CEC4CEC5DE3C601B50175
:100C60000E946E1CF401608B718B828B938B2DEC38
:100C70003CEC4CEC5DE36B897C898D899E890E94FC
:100C80009D1ED40154966D937D938D939C9357979D
:100C90000E942803F401C6A4D7A4E0A8F1A86C1907
:100CA0007D098E099F0962A373A384A395A3DF9195
:100CB000CF911F910F91FF90EF90DF90CF90BF9059
:100CC000AF909F908F907F906F905F904F9008951E
:100CD00090914C029111FCCF91E090934C02909333
:100CE0004B022FEF20934A0210924902260F2093C5
:100CF00048029093270290912702880F892B8093B6
:100D0000270280912602813019F5109226028091E7
:100D100027028093BB008091BC0083FDF8CF85EC57
:100D20008093BC0080914C028130E1F380914902B4
:100D3000861710F460914902A8E2B2E0E4E0F2E024
:100D400080E0861307C01092250280932402089544
:100D500085EEE6CF9D9191938F5FF3CFCF93DF9395
:100D6000C82FD62F0E945B016D2F8EE093E00E946A
:100D7000A2030E94FE0081110EC061E08C2F0E9430
:100D800068069091240280912502981721F0DF9146
:100D9000CF910C9478018FEF9FEFDF91CF91089561
:100DA000CF93C82F0E945B016FE08EE093E00E941A
:100DB000A2030E94FE0081110DC061E08C2F0E94F1
:100DC00068069091240280912502981719F0CF911E
:100DD0000C9478018FEF9FEFCF910895FF920F93BE
:100DE0001F93CF93DF93809176030E945B0168EAA3
:100DF0008EE093E00E94A2030E94FE0066E08091D4
:100E000076030E9468060E942803EB018091240269
:100E100090912502891B990B2091770330917803DB
:100E200086309105BCF421153105D1F30E942803C9
:100E30006C1B7D0B80917703909178038617970741
:100E400028F781E080937903DF91CF911F910F9173
:100E5000FF9008950E947801082F0E947801F82ED3
:100E60000E947801D82F0E947801182F0E947801E3
:100E7000C82F0E94780120E03F2D202B30936E0375
:100E800020936D0320E0312F2D2B3093700320939E
:100E90006F0320E0382F2C2B3093720320937103C3
:100EA000D3CF8F929F92AF92BF920F931F93CF9306
:100EB000DF93CDB7DEB7A1970FB6F894DEBF0FBEB4
:100EC000CDBF19A2423008F44AE08E010F5D1F4FDA
:100ED000842E912CB12CA12CA50194010E948D1D72
:100EE000E62FB901CA01EA3044F5E05DD801EE937E
:100EF0008D01232B242B252B79F790E080E0109790
:100F000069F0FD0101900020E9F73197AF014A1B1C
:100F10005B0BBD0181E792E00E94A501A1960FB68F
:100F2000F894DEBF0FBECDBFDF91CF911F910F911F
:100F3000BF90AF909F908F900895E95CD7CFCF92EC
:100F4000DF92EF92FF92CF93DF936C01990FEE083F
:100F5000FF08F7FE17C08DE20E949202EC0166279F
:100F60007727CB016C197D098E099F094AE00E9401
:100F700051078C0F9D1FDF91CF91FF90EF90DF9075
:100F8000CF9008954AE0C701B601DF91CF91FF905D
:100F9000EF90DF90CF900C9451074F925F926F9239
:100FA0007F928F929F92AF92BF92CF92DF92EF92F9
:100FB000FF92CF93DF9300D000D000D0CDB7DEB743
:100FC0009E838D83DC014D905D906D907C90139796
:100FD00014968D909D90AD90BC90179718968D911A
:100FE0009D910D90BC91A02D89839A83AB83BC8386
:100FF000A3019201C301B2010E946E1C6B017C012E
:10100000A5019401C501B4010E946E1C9B01AC01B5
:10101000C701B6010E94BF1D6B017C0129813A8185
:101020004B815C81CA01B9010E946E1C9B01AC011D
:10103000C701B6010E94BF1D0E94CF1F6B017C013A
:10104000AC019B01C301B2010E949D1EED81FE8196
:101050006083718382839383A7019601C501B401E4
:101060000E949D1EAD81BE8114966D937D938D93DC
:101070009C931797A701960169817A818B819C8146
:101080000E949D1EED81FE81608771878287938714
:1010900026960FB6F894DEBF0FBECDBFDF91CF917D
:1010A000FF90EF90DF90CF90BF90AF909F908F9088
:1010B0007F906F905F904F9008954F925F926F92E4
:1010C0007F928F929F92AF92BF92CF92DF92EF92D8
:1010D000FF92CF93DF93CDB7DEB7AA970FB6F89400
:1010E000DEBF0FBECDBF498F5A8F6B8F7C8F8D8F28
:1010F0009E8F6091510370915203072E000C880B54
:10110000990BC0904B03D0904C030D2C000CEE08B3
:10111000FF086C0D7D1D8E1D9F1D22E0C22ED12C5F
:10112000E12CF12CA70196010E942C1D8091450312
:1011300090914603092E000CAA0BBB0B4C015D01DC
:10114000821A930AA40AB50A8F8E98A2A9A2BAA2FB
:101150006091530370915403072E000C880B990B78
:1011600080904D0390904E03092C000CAA08BB08F8
:10117000680D791D8A1D9B1DA70196010E942C1DDB
:101180008091470390914803092E000CAA0BBB0BDA
:101190004C015D01821A930AA40AB50A8BA29CA293
:1011A000ADA2BEA26091550370915603072E000CAC
:1011B000880B990B80904F0390905003092C000CE2
:1011C000AA08BB08680D791D8A1D9B1DA701960101
:1011D0000E942C1DC0904903D0904A030D2C000C96
:1011E000EE08FF08C21AD30AE40AF50A4090430346
:1011F00050904403052C000C660877088091410349
:10120000909142034C01990FAA08BB088FA298A69F
:10121000A9A6BAA62BA13CA14DA15EA1C301B20112
:101220000E9420214B015C01A70196016FA178A5C6
:1012300089A59AA50E942021A5019401261B370BA0
:10124000480B590BCA01B9010E940F1C6D877E879C
:101250008F87988B80903F0390904003092C000C5F
:10126000AA08BB08A7019601C501B4010E9420216C
:101270006B017C012F8D38A149A15AA1C301B20194
:101280000E942021A7019601261B370B480B590B02
:10129000CA01B9010E940F1C698B7A8B8B8B9C8BC6
:1012A0002F8D38A149A15AA16FA178A589A59AA52A
:1012B0000E9420216B017C012BA13CA14DA15EA1CC
:1012C000C501B4010E94202146015701861A970AE0
:1012D000A80AB90AC501B4010E940F1C6D8B7E8B50
:1012E0008F8B988FCE010D960E94CD0760914103A0
:1012F00070914203072E000C880B990B0E940F1C63
:101300006B017C018D889E88AF88B88C8F8E98A2E7
:10131000A9A2BAA26091430370914403072E000C66
:10132000880B990B0E940F1C2B013C0189889A881D
:10133000AB88BC888BA29CA2ADA2BEA22F8D38A187
:1013400049A15AA1C701B6010E946E1C4B015C0164
:101350002BA13CA14DA15EA1C301B2010E946E1C54
:101360009B01AC01C501B4010E94BE1D69837A8353
:101370008B839C838D849E84AF84B8888FA298A62B
:10138000A9A6BAA660913F0370914003072E000CF6
:10139000880B990B0E940F1C4B015C012FA138A5F3
:1013A00049A55AA5C301B2010E946E1C2B013C0144
:1013B000A50194016F8D78A189A19AA10E946E1C4C
:1013C0009B01AC01C301B2010E94BE1D6D837E83EF
:1013D0008F839887A50194016BA17CA18DA19EA10B
:1013E0000E946E1C4B015C012FA138A549A55AA58E
:1013F000C701B6010E946E1C9B01AC01C501B4017E
:101400000E94BE1D69877A878B879C87CE010196D3
:101410000E94CD07698D7A8D072E000C880B990BE1
:101420000E940F1C2B013C016B8D7C8D072E000C44
:10143000880B990B0E940F1C4B015C016D8D7E8DFA
:10144000072E000C880B990B0E940F1C6B017C016E
:1014500029813A814B815C81C301B2010E946E1CDB
:101460006F8F78A389A39AA32D813E814F815885E0
:10147000C501B4010E946E1C9B01AC016F8D78A167
:1014800089A19AA10E94BF1D6F8F78A389A39AA3F7
:1014900029853A854B855C85C701B6010E946E1C83
:1014A0009B01AC016F8D78A189A19AA10E94BF1DFB
:1014B0006F8F78A389A39AA32D853E854F85588980
:1014C000C301B2010E946E1C2B013C0129893A899B
:1014D0004B895C89C501B4010E946E1C9B01AC0163
:1014E000C301B2010E94BF1D4B015C012D893E89E1
:1014F0004F89588DC701B6010E946E1C9B01AC013B
:10150000C501B4010E94BF1D2F8D38A149A15AA168
:101510000E943E1E20E030E044E353E40E946E1C33
:101520002BED3FE049E450E40E949D1E6B017C01DD
:1015300020E030E0A9010E94081C87FF0AC020E0DB
:1015400030E044EB53E4C701B6010E94BF1D6B01BC
:101550007C01C701B601AA960FB6F894DEBF0FBE94
:10156000CDBFDF91CF91FF90EF90DF90CF90BF90F4
:10157000AF909F908F907F906F905F904F90089565
:101580004F925F926F927F928F929F92AF92BF9293
:10159000CF92DF92EF92FF92CF93DF93CDB7DEB77A
:1015A00060970FB6F894DEBF0FBECDBF0E94EE0667
:1015B00080915A030E945B0168EA8EE093E00E94EA
:1015C000A2030E94FE008093570366E080915A03B5
:1015D0000E9468060E9428037B018091240290915A
:1015E0002502891B990B20916A0330916B03863089
:1015F00091050CF0D9C121153105C9F30E942803CA
:101600006E197F0980916A0390916B038617970783
:1016100020F781E080936C0380915B030E945B0163
:10162000809158039091590360915E0370915F031C
:10163000039729F4609160037091610360688EE004
:1016400093E00E94A2030E94FE008093570366E08D
:1016500080915B030E9468060E9428037B018091B1
:10166000240290912502891B990B20916A033091E5
:101670006B03863091050CF0BEC121153105C9F30D
:101680000E9428036E197F0980916A0390916B0371
:101690008617970720F781E080936C030E94280348
:1016A0002091520130915301AB01421B530B6093C7
:1016B0005201709353018093540190935501BA01E4
:1016C000550F880B990B0E940F1C6B017C016091D8
:1016D000430370914403072E000C880B990B0E9462
:1016E0000F1C2B013C0160913F03709140037195E9
:1016F00061957109072E000C880B990B0E940F1C35
:10170000A30192010E943E1E6D877E878F87988B72
:1017100060916D0370916E03072E000C880B990B7E
:101720000E940F1C2091D2013091D3014091D4012D
:101730005091D5010E94BE1DA70196010E946E1C0A
:101740002FE632E143E85AE30E946E1C20E030E0CD
:101750004CE051E40E946E1C20E030E04AE754E483
:101760000E949D1E25E33AEF4EE85CE30E946E1C4A
:101770002091E8013091E9014091EA015091EB019B
:101780000E94BF1D28E431EE4AE75FE30E946E1C11
:101790004B015C012AE037ED43EA5CE36D857E8511
:1017A0008F8598890E946E1C9B01AC01C501B40114
:1017B0000E94BF1D6093E8017093E9018093EA01E4
:1017C0009093EB018090D6019090D701A090D80122
:1017D000B090D90160914103709142037195619578
:1017E0007109072E000C880B990B0E940F1CA30196
:1017F00092010E943E1E2B013C0160916F0370918B
:101800007003072E000C880B990B0E940F1CA5017A
:1018100094010E94BE1DA70196010E946E1C2FE636
:1018200032E143E85AE30E946E1C20E030E04CE0D5
:1018300051E40E946E1C20E030E04AE754E40E942C
:101840009D1E25E33AEF4EE85CE30E946E1C20915A
:10185000EC013091ED014091EE015091EF010E94B9
:10186000BF1D28E431EE4AE75FE30E946E1C6D87DE
:101870007E878F87988B2AE037ED43EA5CE3C301CC
:10188000B2010E946E1C9B01AC016D857E858F8527
:1018900098890E94BF1D6093EC017093ED018093C5
:1018A000EE019093EF016091710370917203072E26
:1018B000000C880B990B0E940F1CA50194010E943B
:1018C000BE1DA70196010E946E1C2FE632E143E87F
:1018D0005AE30E946E1C20E030E04CE051E40E948C
:1018E0006E1C20E030E04AE754E40E949D1E25E390
:1018F0003AEF4EE85CE30E946E1C9B01AC016091E4
:10190000F0017091F1018091F2019091F3010E9438
:10191000BE1D28E431EE4AE75FE30E946E1C6B01B6
:101920007C018091580390915903039709F0B3C04B
:1019300081E0482F89831A821C821B821E821D82AD
:1019400050E060E07C8180E09E810E945D082AE09A
:1019500037ED43EA5CE30E946E1C25E33AEF4EE864
:101960005CE30E946E1CA70196010E94BF1D60935C
:10197000F0017093F1018093F2019093F30160966E
:101980000FB6F894DEBF0FBECDBFDF91CF91FF90B1
:10199000EF90DF90CF90BF90AF909F908F907F900F
:1019A0006F905F904F9008950E947801C82E0E941A
:1019B0007801B82E0E947801E82E0E947801D82E76
:1019C0000E947801F82E0E94780120E03B2D2C29FE
:1019D0003093400320933F0320E03D2D2E29309388
:1019E00042032093410320E0382F2F2930934403F2
:1019F0002093430311CE809158039091590303978C
:101A000021F50E947801A82E0E947801D82E0E940C
:101A10007801B82E0E947801E82E0E947801C82E25
:101A20000E947801F82E9D2D8A2D90934603809375
:101A300045039E2D8B2D9093480380934703DF2C05
:101A4000D0924A03C092490329CE0E947801D82E31
:101A50000E947801A82E8091580390915903892BF8
:101A600069F40E947801E82E0E947801B82E0E9445
:101A70007801F82E0E947801C82ED5CF0E947801F7
:101A8000F82E0E947801C82E0E947801E82E0E944C
:101A90007801B82EC8CF18861F828FEF682F8987EC
:101AA0008A871C861B8640E058857FEF80E09C85F6
:101AB0004CCF3F924F925F926F927F928F929F9204
:101AC000AF92BF92CF92DF92EF92FF920F931F934C
:101AD000CF93DF938C017B01D0E0C0E0312C84E117
:101AE000C82ED12C2B01770F66087708C230D1059C
:101AF0002CF4FE01E05FFE4F808113C0C230D1059F
:101B000099F4043611054CF480E30E9492020A30E5
:101B100011051CF480E30E949202C8010E949F07F5
:101B20008BE30E9492022FC0CE0106970F9738F5E3
:101B3000B6016C1B7D0B072E000C880B990B0E94C5
:101B40000F1C9B01AC0160E070E080E291E40E9418
:101B5000791F4B015C01C301B2010E940F1CA5015A
:101B600094010E94081C87FF02C080E3DACF311085
:101B700003C0C7010E949F073324339404C0C531BA
:101B8000D1050CF0B6CF2196C831D10509F0AECF02
:101B9000DF91CF911F910F91FF90EF90DF90CF9049
:101BA000BF90AF909F908F907F906F905F904F907D
:101BB0003F900895CF93DF93EC018091F6019091CF
:101BC000F7019093F5018093F401D093F701C0934E
:101BD000F6010E94C804BE018AE090E0DF91CF9137
:101BE0000C94590DCF93DF93C8EED1E020E030E0A4
:101BF0004AE754E4688179818A819B810E946E1C46
:101C000020E030EC4AED55E40E94BF1D0E940F1FFA
:101C100088E592E00E94590D20E030E04AE754E464
:101C20006C817D818E819F810E946E1C20E030EC52
:101C30004AED55E40E94BF1D0E940F1F89E592E006
:101C40000E94590D20E030E04AE754E46885798528
:101C50008A859B850E946E1C20E030EC4AED55E49D
:101C60000E94BF1D0E940F1F8AE592E0DF91CF9175
:101C70000C94590D2F923F924F925F926F927F92E8
:101C80008F929F92AF92BF92CF92DF92EF92FF928C
:101C90000F931F93CF93DF93CDB7DEB728970FB67F
:101CA000F894DEBF0FBECDBF8091FA019091FB0189
:101CB000009709F44BC09F938F938CE491E09F931E
:101CC0008F93CE0101969F938F930E94562180910E
:101CD000FA019091FB010F900F900F900F900F90D1
:101CE0000F908436910590F18538910550F5EB8081
:101CF0000E2C000CFF0820E3E21AF1086A80062C83
:101D0000000C770830E3631A71088091F801909114
:101D1000F9018301000F111FE114F10481F1680141
:101D2000C60CD71CCE0CDF1CCC0CDD1CCC0CDD1C77
:101D300096012A563A4F690164E670E00E943C2100
:101D400029C08D589109049708F40CC128960FB644
:101D5000F894DEBF0FBECDBFDF91CF911F910F91E1
:101D6000FF90EF90DF90CF90BF90AF909F908F90BB
:101D70007F906F905F904F903F902F9008954CE030
:101D8000469D9001479D300D1124A9014A565A4F96
:101D90006A01BC0190E080E00E940D1CF6016083A6
:101DA000718382839383060D171DF801EA53FE4F5A
:101DB000EE0DFF1D81E080830E0D1F1DF801EE0F5B
:101DC000FF1FEE0FFF1FEA56FA4F6081718182817B
:101DD00093810E940F1F2AE0269DA001279D500D90
:101DE00011249A012C573C4FC9018E0D9F1D0E9452
:101DF000590D8CE0869D8001879D100D11240A5697
:101E00001A4FF801208031804280538020E030E07A
:101E1000A901C201B1010E94081C87FD9AC0F80106
:101E200084809580A680B78020E030E0A901C501BC
:101E3000B4010E94081C87FD8CC0F801C084D184C5
:101E4000E284F38420E030E0A901C701B6010E94DA
:101E5000081C87FD7EC08CE3869DF001879DF00DF8
:101E60001124EA57FC4F81E0228D338D213031055A
:101E700009F080E083AF8CE3869D8001879D100D83
:101E800011240A571C4FF80120823182428253826A
:101E900084829582A682B782C086D186E286F38646
:101EA00066A577A580A991A90E940D1C20E030E0CD
:101EB0004AE754E40E949D1E6D837E838F8398873A
:101EC000F80124863586468657869B01AC01C501FC
:101ED000B4010E946E1C4B015C01F801808A918A5A
:101EE000A28AB38A2D813E814F815885C701B601F0
:101EF0000E949D1E6B017C01F801C48AD58AE68A86
:101F0000F78A808D918D019721F5A201910160E002
:101F100070E0CB010E94BE1DF8016487758786873B
:101F20009787A501940160E070E0CB010E94BE1D7F
:101F3000F801608B718B828B938BA701960160E017
:101F400070E0CB010E94BE1DF801648B758B868BFF
:101F5000978B1092FB011092FA011092F9011092E6
:101F6000F801F4CE8B81082E000C990BC1972CE060
:101F7000289F8001299F100D1124065D1A4F809122
:101F8000F8019091F90168EE73E00E943C2190E025
:101F900080E00E940D1CF80160837183828393832B
:101FA000D8CF1F920F920FB60F9211242F933F9309
:101FB0004F935F936F937F938F939F93AF93BF9351
:101FC000EF93FF9381E792E00E942302FF91EF914C
:101FD000BF91AF919F918F917F916F915F914F9141
:101FE0003F912F910F900FBE0F901F9018951F9249
:101FF0000F920FB60F9211242F938F939F93EF930D
:10200000FF93E0918102F09182028081E09187024A
:10201000F091880282FD1BC0908180918A028F5FBF
:102020008F7320918B02821741F0E0918A02F0E0D9
:10203000EF58FD4F958F80938A02FF91EF919F910A
:102040008F912F910F900FBE0F901F901895808148
:10205000F4CF1F920F920FB60F9211242F933F933C
:102060008F939F93AF93BF9380919B0190919C011D
:10207000A0919D01B0919E0130919A0123E0230F20
:102080002D3758F50196A11DB11D20939A0180931B
:102090009B0190939C01A0939D01B0939E01809120
:1020A0009F019091A001A091A101B091A201019680
:1020B000A11DB11D80939F019093A001A093A10148
:1020C000B093A201BF91AF919F918F913F912F91BA
:1020D0000F900FBE0F901F90189526E8230F0296C1
:1020E000A11DB11DD2CF1F920F920FB60F921124D6
:1020F0002F933F934F935F936F937F938F939F9310
:10210000AF93BF93EF93FF938091B900887F8036A0
:1021100009F44AC0F0F5883209F4A7C018F58031F7
:1021200009F49BC0B8F4882309F4F9C0883009F495
:1021300094C0FF91EF91BF91AF919F918F917F914B
:102140006F915F914F913F912F910F900FBE0F9024
:102150001F901895883109F488C0803251F7809318
:102160004A0214C0803409F49DC040F48033B9F3AE
:102170008833F9F680934A0285ECB0C0803509F4C3
:1021800085C0883509F496C0883499F60E943403D6
:10219000D0CF883909F48CC038F5883729F050F44D
:1021A000883611F0803729F683E080934C02109234
:1021B000990157C0883809F47BC0803919F08038FC
:1021C00009F0B7CF80919901803208F071C0E09199
:1021D000990181E08E0F809399018091BB00F0E01E
:1021E000E758FE4F80833DC0803B39F0E0F4803AF1
:1021F00009F479C0883A09F09CCF84E080934C02BE
:102200001092780110927701E091BD01F091BE012A
:1022100009958091770181110FC081E0809377014A
:102220001092570109C0803C09F4A6CF883C09F4FC
:10223000A3CF883B09F07DCFE091780181E08E0F3C
:1022400080937801F0E0E95AFE4F80818093BB00D3
:10225000909178018091770129C080912702809325
:10226000BB0085EC8093BC0064CF909149028091C3
:102270004802981758F5E091490281E08E0F80934B
:102280004902F0E0E85DFD4F8081E9CFE09149022D
:1022900081E08E0F809349028091BB00F0E0E85D01
:1022A000FD4F808390914902809148029817C8F2AF
:1022B00085E8D8CFE091490281E08E0F80934902F2
:1022C0008091BB00F0E0E85DFD4F808380914B0280
:1022D00081115CCF81E08093260284EA8093BC0068
:1022E00010924C0226CF85EC8093BC0010924C02D9
:1022F00080919901803230F4E0919901F0E0E75843
:10230000FE4F10826091990170E0E091BB01F09165
:10231000BC0189E791E00995109299010ACF1092CA
:102320004A0234CF1F920F920FB60F9211242F93AF
:102330003F934F935F936F937F938F939F93AF934D
:10234000BF93CF93DF93EF93FF9380915601C0919A
:102350003E03D0E087FF24C01092850010928400D5
:10236000809156018F5F8093560180915601082E0F
:10237000000C990B8C179D0724F4809156018C302A
:10238000C4F18091840090918500049680349C492A
:1023900008F47AC08091840090918500049676C0FC
:1023A00080915601082E000C990B8C179D07C4F6DE
:1023B000E09156018E2FEE0F990BFC01EE0FFF1FDF
:1023C000E80FF91FE65EFC4F808186FFC9CFE091E0
:1023D00056018E2FEE0F990BFC01EE0FFF1FE80F39
:1023E000F91FE65EFC4F808160E08F730E94B702A8
:1023F000B7CF2091840030918500E09156018E2F57
:10240000EE0F990BFC01EE0FFF1FE80FF91FE65EC0
:10241000FC4F81819281820F931F9093890080935A
:102420008800E09156018E2FEE0F990BFC01EE0F04
:10243000FF1FE80FF91FE65EFC4F808186FF11C089
:10244000E09156018E2FEE0F990BFC01EE0FFF1F4E
:10245000E80FF91FE65EFC4F808161E08F730E94F8
:10246000B702FF91EF91DF91CF91BF91AF919F9113
:102470008F917F916F915F914F913F912F910F902D
:102480000FBE0F901F90189580E49CE990938900EF
:10249000809388008FEF80935601E3CFAF92BF9275
:1024A000CF92DF92EF92FF920F931F9310927402DC
:1024B0001092730288EE93E0A0E0B0E08093750282
:1024C00090937602A0937702B09378022CE231E0E9
:1024D000309372022093710225EC30E030937E023B
:1024E00020937D0224EC30E03093800220937F0221
:1024F00020EC30E0309382022093810221EC30E026
:10250000309384022093830222EC30E030938602E1
:102510002093850226EC30E03093880220938702D6
:1025200010928A0210928B0210928C0210928D02ED
:1025300010921103109210038093120390931303CF
:10254000A0931403B09315038EE391E090930F03CF
:1025500080930E03A0909A05B0909B05C0909C05B7
:10256000D0909D05E0909605F09097050091980514
:10257000109199058091A1058F938091A0058F936B
:1025800080919F058F9380919E058F932AE235E07D
:1025900042E355E06EE275E08AE595E00E94B10500
:1025A000A090A605B090A705C090A805D090A90559
:1025B000E090A205F090A3050091A4051091A50557
:1025C0008091AD058F938091AC058F938091AB0581
:1025D0008F938091AA058F9326E335E04EE355E073
:1025E0006AE375E08EEE94E00E94B105A090B2051A
:1025F000B090B305C090B405D090B505E090AE059D
:10260000F090AF050091B0051091B1058091B9052A
:102610008F938091B8058F938091B7058F938091A8
:10262000B6058F9322E435E04AE455E066E475E0B0
:1026300082EB94E00E94B105A090BE05B090BF056A
:10264000C090C005D090C105E090BA05F090BB05E0
:102650000091BC051091BD058091C5058F938091B7
:10266000C4058F938091C3058F938091C2058F938A
:102670002EE435E046E555E062E575E086E794E056
:102680000E94B1058CE3EAE5F5E0A6E8B3E001902D
:102690000D928A95E1F78CE3EEEEF4E0A2ECB3E064
:1026A00001900D928A95E1F78CE3E2EBF4E0AEEF56
:1026B000B3E001900D928A95E1F78CE3E6E7F4E050
:1026C000AAE3B4E001900D928A95E1F7EAE7F3E01E
:1026D00026E833E08DB79EB740960FB6F8949EBFBC
:1026E0000FBE8DBF4FEF68EB7BE080913E038C30D7
:1026F00008F048C091E0980F90933E03808390E0EB
:10270000DC01AA0FBB1FA80FB91FA65EBC4F129613
:102710007C936E93119733962E173F0731F783E022
:1027200090E0909375038093740310927803109255
:1027300077031092790386E0E4E0F1E0A1E5B3E0ED
:1027400001900D928A95E1F786E0EAE0F1E0ABE4D2
:10275000B3E001900D928A95E1F784E090E09093C8
:1027600059038093580310926B0310926A031092DE
:102770006C031F910F91FF90EF90DF90CF90BF906F
:10278000AF9008954083C7CFCF93DF93CDB7DEB727
:10279000A3970FB6F894DEBF0FBECDBF789484B573
:1027A000826084BD84B5816084BD85B5826085BD4D
:1027B00085B5816085BD80916E00816080936E00DB
:1027C00010928100809181008260809381008091CD
:1027D000810081608093810080918000816080937E
:1027E00080008091B10084608093B1008091B0003E
:1027F00081608093B00080917A00846080937A0039
:1028000080917A00826080937A0080917A00816062
:1028100080937A0080917A00806880937A00109289
:10282000C1001092F7011092F60180E10E94DF00D2
:1028300081E10E94DF008FE00E94DF000E94C80457
:10284000E0918102F091820282E08083E091810236
:10285000F09182021082E0917D02F0917E0210825E
:10286000E0917F02F091800280E1808310928902E2
:10287000E0918502F091860286E08083E0918302F8
:10288000F0918402808180618083E0918302F091E5
:102890008402808188608083E0918302F0918402C9
:1028A000808180688083E0918302F091840280813E
:1028B0008F7D808382E390E0A0E0B0E0809375029A
:1028C00090937602A0937702B09378029E01205FE6
:1028D0003F4F398B288B81E792E00E940302181644
:1028E00019060CF05FC0E3EAF1E0818181938AEB85
:1028F00091E08E179F07C9F781E792E00E94E101FE
:102900008093BA012091A3019091A4019B3319F403
:1029100091E0273609F090E02091B901253609F0C1
:1029200079C08B3309F076C0992309F473C02091E4
:10293000A501022E000C330B2053310944E6429FBF
:10294000C001439F900D11242091A601022E000C7E
:10295000330B205331096AE0629FA001639F500D41
:102960001124840F951F2091A701022E000C330B18
:1029700020533109820F931F9093FB018093FA013A
:10298000A9EAB1E0FE013196CF012D91219328896A
:102990003989E217F307C9F70E94E21B9093F90106
:1029A0008093F8011092FC018091FA019091FB0153
:1029B0000B9771F48091F8019091F9010E94DA0D62
:1029C0001092FB011092FA011092F9011092F80195
:1029D0008091F6019091F701009709F0B6C10E942D
:1029E0009201BC01990F880B990B0E940F1C21E3E7
:1029F00038E04CEA5CE30E946E1C20E030E040E8E6
:102A000050E40E946C1F181674F483E190E00E9459
:102A1000DA0DE7C11092FB011092FA011092F90150
:102A20001092F801BFCF109225021092240210924A
:102A30004E021092700210924C0281E080934B0281
:102A40001092260261E082E10E94B70261E083E118
:102A50000E94B7028091B9008E7F8093B900809167
:102A6000B9008D7F8093B90088E48093B80085E435
:102A70008093BC0083EA91E09093BE018093BD01F6
:102A8000A4EAB1E0B093BC01A093BB018BE60E9425
:102A9000D0068F3F980709F489C0873D910509F05A
:102AA00094C082E090E021E030E090937503809341
:102AB00074030197029708F091C08AE6213031052E
:102AC00009F48BE6809376036FE070E08DE10E945D
:102AD000AE068934910509F46DC66FE070E08EE1B1
:102AE0000E94AE068934910509F042C683E090E069
:102AF00090935903809358038EE180935B038093F6
:102B00005A0328E030E0309361032093600389E0AA
:102B100090E090935F0380935E038AE090E090934F
:102B20006503809364038BE090E09093630380934C
:102B300062038CE090E090936903809368038DE0DA
:102B400090E0909367038093660380917403909163
:102B50007503029721F460E089E30E94160460E0A7
:102B600083E20E9416046FE680E20E9416048091C0
:102B70005803909159038330910509F0C9C060E072
:102B800081E20E940B0467E580E20E940B0464E688
:102B900084E20E940B0460E285E20E940B0460E084
:102BA00086E20E940B0481E090E031CF8AE60E9429
:102BB000D0068F3F980709F4CAC5873D910541F0BB
:102BC00081E090E030E020E070CF81E090E06BCFDA
:102BD00082E090E0F7CF90E080E065CF88E621309A
:102BE000310509F06FCF89E66DCF6FE070E08EE1BF
:102BF0000E94AE0621E030E0CC9709F0D8C582E013
:102C000090E090935903809358038130910509F423
:102C10005CC0029779F188E12130310509F489E13E
:102C200080935A038EE180935B0383E090E090935E
:102C30005F0380935E0384E090E090936103809350
:102C4000600385E090E0909363038093620386E0E5
:102C500090E0909365038093640387E090E0909305
:102C6000670380936603E8E0F0E0F0936903E09384
:102C700068036BCF89E180935A038EE180935B03F5
:102C800083E090E090935F0380935E0384E090E0A4
:102C9000909361038093600387E090E090936303D7
:102CA0008093620388E090E09093650380936403CF
:102CB00085E090E0909367038093660386E090E060
:102CC000909369038093680340CF88E121303105F8
:102CD00009F489E180935A038EE180935B0383E0DA
:102CE00090E090935F0380935E0384E090E0909384
:102CF00061038093600387E090E090936303809387
:102D00006203A8E0B0E0B0936503A0936403D0CF62
:102D10000297A9F468E083E20E94EE0367E480E290
:102D20000E94EE036CE080E00E94D10360E281E04B
:102D30000E94D10360E082E00E94D10334CF60E0C2
:102D400083E20E94EE0367E2EACF8130910509F049
:102D5000F8C0C090C001D090C101E090C201F090D5
:102D6000C301C114D104E104F10409F0A7C069E072
:102D700070E08AE793E00E946D0466E070E08DE702
:102D800093E00E946D0465E070E080E893E00E94AB
:102D90006D0463E070E083E893E00E946D0468E0F6
:102DA00077E08AE793E00E94360468E077E08DE7F9
:102DB00093E00E94360468E077E080E893E00E94A8
:102DC000360468E077E083E893E00E9436040E94CE
:102DD00028036093C0017093C1018093C201909356
:102DE000C3010E942803009100011091010120916C
:102DF000020130910301601771078207930770F099
:102E00000E9428036C507E4F8F4F9F4F60930001AC
:102E10007093010180930201909303010E942803A3
:102E2000AB01BC018091000190910101A0910201D0
:102E3000B09103018A5F9109A109B10911E08417DA
:102E40009507A607B70708F010E0109303028091DA
:102E500001029091020260E0009721F061E0019789
:102E600009F0612F8FE00E94B7028091FF019091DD
:102E7000000260E0009721F061E0019709F0612F06
:102E800081E10E94B7028091FD019091FE0160E016
:102E9000009721F061E0019709F0612F80E10E9425
:102EA000B70280E090E0892B09F415CD0E940F0253
:102EB000882309F410CD0E9400000DCD0E94280344
:102EC0009701860108571C4E2F4F3F4F06171707D3
:102ED0002807390720F48091BF018823B1F00E94B0
:102EE0002803F0E1CF0EF7E2DF1EE11CF11CC6164D
:102EF000D706E806F90608F074CF8091BF01882351
:102F000009F46FCF82E090E082CD60E273E08AE75F
:102F100093E00E94360460E273E08DE793E00E9444
:102F2000360460E273E080E893E00E94360460E2D9
:102F300073E083E893E00E94360481E08093BF0150
:102F400050CF8230910551F48091FA019091FB01AC
:102F5000019709F046CF83E090E059CD8330910589
:102F600071F50091C4011091C5010115110559F4C5
:102F70000E9428037093C5016093C40182E090E031
:102F80000E94590D2ECF0E942803601B710B85E112
:102F900090E06436710508F03ACD8091FA01909185
:102FA000FB01039709F01DCF8091F8019091F90181
:102FB0000817190709F015CF84E090E028CD843078
:102FC000910509F011C10E943A0EE6ECF1E081E0B2
:102FD0009081989FC00111244181489F9001499F91
:102FE000300D11244281429FC001439F900D112456
:102FF0008170339622ED31E02E173F0749F7882381
:1030000009F4EFCE85E090E00E94DA0D06E813E0C7
:10301000BB24B39480E090E0A1EEB4ECF80182AB65
:1030200093ABA4ABB5AB80E090E0A1EEB4E486AB8B
:1030300097ABA0AFB1AF82AD882309F453C0E68C43
:10304000F78CD7014D905D906D907C9020E030E042
:1030500041EE54E4C301B2010E946C1F181624F51E
:1030600080E090E0A1EEB4E4F70180839183A28335
:10307000B383D80196964D905D906D907C90999712
:10308000D696CD90DD90ED90FC90D997A701960152
:10309000C301B2010E946C1F1816ACF4F801C6A25D
:1030A000D7A2E0A6F1A61EC020E030E041EE54EC2D
:1030B000C301B2010E94081C87FFDBCF80E090E0D3
:1030C000A1EEB4ECD1CFD801D296CD90DD90ED90A9
:1030D000FC90D597A7019601C301B2010E94081C7C
:1030E00087FDDCCFD8019E966D917D918D919C914D
:1030F000D1970E940D1C9B01AC0160E070E080EA5A
:1031000091E40E949D1E6B017C01AC019B01F801C2
:1031100060897189828993890E946E1CD8015096BA
:103120006D937D938D939C935397A701960154962D
:103130006D917D918D919C9157970E949D1EF801F4
:10314000648B758B868B978B84E190E0A0E0B0E078
:1031500086A797A7A0ABB1AB82AD81113BC0068C0F
:10316000F78DE02DC080D180E280F380D801969663
:10317000CD92DD92ED92FC9299975C96ED91FC9147
:1031800080819181A281B381F80182A793A7A4A72E
:10319000B5A746A857A860AC71ACA3019201C701BE
:1031A000B6010E946C1F181644F4D80196964D92F1
:1031B0005D926D927C9299970DC0F80142A853A838
:1031C00064A875A8A3019201C701B6010E94081C5A
:1031D00087FDEBCFF801B2AE045C1F4FF4E0063779
:1031E0001F0709F017CFFDCD8530910509F4F9CD02
:1031F0008630910501F50E943A0E0E94C00A0E9495
:10320000F20D8091FA019091FB018639910581F4CC
:103210008091F8019091F9019093E7018093E60184
:103220001092FB011092FA011092F9011092F8012C
:103230000E94F204D6CD8730910509F0B9C0009103
:10324000F4011091F5011A8A1B8A1C8A1D8AC12C6F
:10325000D12C7601460157012A8D3B8D283C310542
:103260000CF072C00E94EE0660916D0370916E03C7
:10327000072E000C880B990B0E940F1C9B01AC01C0
:10328000C501B4010E94BF1D4B015C0160916F0339
:1032900070917003072E000C880B990B0E940F1C75
:1032A0009B01AC01C701B6010E94BF1D6B017C01EF
:1032B0006091710370917203072E000C880B990BBB
:1032C0000E940F1C9B01AC016A897B898C899D89B6
:1032D0000E94BF1D6A8B7B8B8C8B9D8B0E9403038E
:1032E0002B013C018AE090E0A0E0B0E08E8B9F8B48
:1032F000A88FB98F0E94030364197509860997097D
:10330000683E734081059105A8F38E899F89A88D39
:10331000B98D0197A109B1098E8B9F8BA88FB98FA9
:1033200098EE490E93E0591E611C711C8E899F898D
:10333000A88DB98D892B8A2B8B2BE1F6EA8DFB8D1D
:103340003196FB8FEA8F88CF20E030E048E453E4E9
:10335000C501B4010E949D1E6093D2017093D301F8
:103360008093D4019093D50120E030E048E453E409
:10337000C701B6010E949D1E6093D6017093D701CC
:103380008093D8019093D90120E030E048E453E4E1
:103390006A897B898C899D890E949D1E6093DA01D0
:1033A0007093DB018093DC019093DD01C8012FCB8A
:1033B00088309105F9F40E949201BC01990F880BA5
:1033C000990B0E940F1C21E338E04CEA5CE30E9459
:1033D0006E1C20E030E048EC52E40E946E1C0E941B
:1033E0000F1F88E993E00E94590D8091F40190919C
:1033F000F5010DCB0A9709F0F4CC81E08093FC0134
:103400000E94C00A0E94F20D0E943A0E8091FA01B9
:103410009091FB018639910581F48091F80190919A
:10342000F9019093E7018093E6011092FB0110925D
:10343000FA011092F9011092F8018091FC018823A1
:1034400009F4F6CE10922E0510922F051092300539
:10345000109231058091E8019091E901A091EA0173
:10346000B091EB0180933A0590933B05A0933C0506
:10347000B0933D058091EC019091ED01A091EE019A
:10348000B091EF018093460590934705A0934805BE
:10349000B0934905109252051092530510925405AD
:1034A0001092550586E8682E83E0782ED301DA96CF
:1034B0008C91882309F4FCC00E9428036E8B7F8BBB
:1034C000888F998FF30182A193A1A4A1B5A14E8900
:1034D0005F89688D798D481B590B6A0B7B0B86A51C
:1034E00097A5A0A9B1A9481759076A077B0708F44F
:1034F000DFC0048CF58DE02D80819181A281B381A4
:103500008A8B9B8BAC8BBD8BD3019096ED91FC91FC
:103510002A893B894C895D8960817181828193818F
:103520000E94BE1D6B017C01F30122A533A544A5B9
:1035300055A56A897B898C899D890E94BE1D6C8FE7
:103540007D8F8E8F9F8FD30150962D913D914D9100
:103550005C915397C701B6010E946E1CF30126A12E
:1035600037A140A551A50E94BF1D4B015C01D301AD
:1035700096968D929D92AD92BC929997DB965C90B7
:10358000DB97511017C01C962D913D914D915C9188
:103590001F976C8D7D8D8E8D9F8D0E946E1C9B0163
:1035A000AC01C501B4010E94BE1DF30166A377A35F
:1035B00080A791A7D30196968D919D910D90BC9176
:1035C000A02D88A399A3AAA3BBA3F30126A837A87B
:1035D00000AD11AD9101A801BC01CD010E946C1F8D
:1035E00018160CF099C0C101D801F30186A397A366
:1035F000A0A7B1A7552009F4A6C0D3011C962D9110
:103600003D914D915C911F97C701B6010E946E1CC0
:103610006B017C01F30124893589468957896C8DBA
:103620007D8D8E8D9F8D0E946E1C9B01AC01D30100
:1036300096966D917D918D919C9199970E94BE1D5A
:10364000A70196010E94BF1D6B017C019B01AC018B
:10365000B101C8010E94081C87FD0FC0F30122A818
:1036600033A804A915A99101A801B601C7010E94B8
:10367000081C87FD02C016018701D3015E96ED91FB
:10368000FC91C101D80180839183A283B3838A898D
:103690009B89AC89BD89F30182A793A7A4A7B5A78D
:1036A0008E899F89A88DB98D82A393A3A4A3B5A366
:1036B000FCE36F0E711C26E734E02615370509F090
:1036C000F5CE60913205709133058091340590916B
:1036D00035050E940F1F7093DF016093DE0160913A
:1036E0003E0570913F0580914005909141050E94F3
:1036F0000F1F7093E1016093E00160914A057091A2
:103700004B0580914C0590914D050E940F1F7093C1
:10371000E3016093E2018CCDD301D2968D909D9010
:10372000AD90BC90D597A501940168A179A18AA11B
:103730009BA10E94081C87FF5DCFF30186A297A280
:10374000A0A6B1A657CFC12CD12C760163CF89E6B4
:103750000E94D006833D910509F43DCA88E60E9487
:10376000D006833D910509F0AFC990E080E02ACAF8
:1037700060E270E089E10E94AE06019609F035CA68
:1037800060E270E088E10E94AE06019609F4DDC9AE
:103790006FE070E08EE10E94AE0631E020E0CC9751
:1037A00009F030E0832F922F30E020E02ACA90E029
:1037B00080E027CA83E090E09093590380935803F8
:1037C0008DE19BC9FC0188279927E894219120323B
:1037D000E9F3293010F02E30C8F32B3241F02D32AE
:1037E00039F4689404C00E94001C820F911D21913D
:1037F00020532A30C0F31EF4909581959F4F089571
:103800007AE0979F902D879F802D910D1124089528
:103810000E944A1C08F481E00895E89409C097FBCF
:103820003EF490958095709561957F4F8F4F9F4F97
:103830009923A9F0F92F96E9BB279395F6958795DB
:1038400077956795B795F111F8CFFAF4BB0F11F49E
:1038500060FF1BC06F5F7F4F8F4F9F4F16C0882345
:1038600011F096E911C0772321F09EE8872F762F7B
:1038700005C0662371F096E8862F70E060E02AF0BC
:103880009A95660F771F881FDAF7880F96958795A8
:1038900097F90895990F0008550FAA0BE0E8FEEF7D
:1038A00016161706E807F907C0F012161306E40704
:1038B000F50798F0621B730B840B950B39F40A26FD
:1038C00061F0232B242B252B21F408950A2609F4DB
:1038D000A140A6958FEF811D811D08950E94811C36
:1038E0000C94F21C0E94E41C38F00E94EB1C20F0A7
:1038F000952311F00C94DB1C0C94E11C11240C9406
:10390000261D0E94031D70F3959FC1F3950F50E093
:10391000551F629FF001729FBB27F00DB11D639F81
:10392000AA27F00DB11DAA1F649F6627B00DA11D27
:10393000661F829F2227B00DA11D621F739FB00DCD
:10394000A11D621F839FA00D611D221F749F33273D
:10395000A00D611D231F849F600D211D822F762FD6
:103960006A2F11249F5750409AF0F1F088234AF0B3
:10397000EE0FFF1FBB1F661F771F881F915050401F
:10398000A9F79E3F510580F00C94DB1C0C94261D7A
:103990005F3FE4F3983ED4F3869577956795B795A6
:1039A000F795E7959F5FC1F7FE2B880F911D9695C0
:1039B000879597F9089597F99F6780E870E060E030
:1039C00008959FEF80EC089500240A9416161706B8
:1039D00018060906089500240A9412161306140600
:1039E00005060895092E0394000C11F4882352F063
:1039F000BB0F40F4BF2B11F460FF04C06F5F7F4F1B
:103A00008F4F9F4F089557FD9058440F551F59F001
:103A10005F3F71F04795880F97FB991F61F09F3FBB
:103A200079F087950895121613061406551FF2CFE4
:103A30004695F1DF08C0161617061806991FF1CF34
:103A400086957105610508940895E894BB2766275B
:103A50007727CB0197F90895052E97FB1EF4009464
:103A60000E94431D57FD07D00E948D1D07FC03D007
:103A70004EF40C94431D50954095309521953F4F41
:103A80004F4F5F4F089590958095709561957F4F4A
:103A90008F4F9F4F08950E94AF1DA59F900DB49F1B
:103AA000900DA49F800D911D112408952F923F9297
:103AB0004F925F926F927F928F929F92AF92BF923E
:103AC000CF92DF92EF92FF920F931F93CF93DF93EA
:103AD000CDB7DEB7CA1BDB0B0FB6F894DEBF0FBE47
:103AE000CDBF09942A88398848885F846E847D8494
:103AF0008C849B84AA84B984C884DF80EE80FD8096
:103B00000C811B81AA81B981CE0FD11D0FB6F8940B
:103B1000DEBF0FBECDBFED010895A1E21A2EAA1B94
:103B2000BB1BFD010DC0AA1FBB1FEE1FFF1FA2176D
:103B3000B307E407F50720F0A21BB30BE40BF50B6A
:103B4000661F771F881F991F1A9469F760957095F3
:103B5000809590959B01AC01BD01CF010895A29F76
:103B6000B001B39FC001A39F700D811D1124911D51
:103B7000B29F700D811D1124911D08955058BB27CF
:103B8000AA270E94D61D0C94F21C0E94E41C38F057
:103B90000E94EB1C20F039F49F3F19F426F40C949A
:103BA000E11C0EF4E095E7FB0C94DB1CE92F0E946E
:103BB000031D58F3BA17620773078407950720F0AF
:103BC00079F4A6F50C94251D0EF4E0950B2EBA2F72
:103BD000A02D0B01B90190010C01CA01A001112413
:103BE000FF27591B99F0593F50F4503E68F11A16BF
:103BF000F040A22F232F342F4427585FF3CF469550
:103C000037952795A795F0405395C9F77EF41F1671
:103C1000BA0B620B730B840BBAF09150A1F0FF0F3B
:103C2000BB1F661F771F881FC2F70EC0BA0F621F27
:103C3000731F841F48F4879577956795B795F79517
:103C40009E3F08F0B0CF9395880F08F09927EE0FAC
:103C50009795879508950E94E41C60F080E891E0B4
:103C600009F49EEF0E94EB1C28F040E851E071F44B
:103C70005EEF0CC00C94E11C0C94251DE92FE0783C
:103C80000E94031D40F3092E052AB1F326173707BA
:103C90004807590738F00E2E07F8E02569F0E025AF
:103CA000E0640AC0EF6307F8009407FADB01B9018A
:103CB0009D01DC01CA01AD01EF930E94B41E0E9478
:103CC000F21C0E946E1E5F91552339F02BED3FE0F0
:103CD00049E450FD49EC0C94BF1D0895DF93DD27A6
:103CE000B92FBF7740E85FE31616170648075B0752
:103CF00018F4D92F0E94711F9F938F937F936F9316
:103D00000E940F20E8E6F0E00E94451F0E94F21C8E
:103D10002F913F914F915F910E94811CDD2351F0C3
:103D20009058A2EA2AED3FE049EC5FE3D0785D27A6
:103D30000E94D61DDF910C94F21C0E94B11E0C94BF
:103D4000F21C0E94EB1C58F00E94E41C40F029F485
:103D50005F3F29F00C94DB1C51110C94261D0C9430
:103D6000E11C0E94031D68F39923B1F3552391F3DD
:103D7000951B550BBB27AA2762177307840738F0DA
:103D80009F5F5F4F220F331F441FAA1FA9F335D037
:103D90000E2E3AF0E0E832D091505040E695001CEB
:103DA000CAF72BD0FE2F29D0660F771F881FBB1FA5
:103DB000261737074807AB07B0E809F0BB0B802D83
:103DC000BF01FF2793585F4F3AF09E3F510578F0AF
:103DD0000C94DB1C0C94261D5F3FE4F3983ED4F357
:103DE000869577956795B795F7959F5FC9F7880F83
:103DF000911D9695879597F90895E1E0660F771FD5
:103E0000881FBB1F621773078407BA0720F0621B65
:103E1000730B840BBA0BEE1F88F7E09508950E9490
:103E2000161F6894B1110C94261D08950E940B1D55
:103E300088F09F5798F0B92F9927B751B0F0E1F06B
:103E4000660F771F881F991F1AF0BA95C9F714C01B
:103E5000B13091F00E94251DB1E008950C94251D0C
:103E6000672F782F8827B85F39F0B93FCCF3869554
:103E700077956795B395D9F73EF4909580957095B1
:103E800061957F4F8F4F9F4F0895DF93CF931F937F
:103E90000F93FF92EF92DF927B018C01689406C032
:103EA000DA2EEF010E94811CFE01E894A591259174
:103EB000359145915591A6F3EF010E94D61DFE0163
:103EC0009701A801DA9469F7DF90EF90FF900F91C6
:103ED0001F91CF91DF9108950E944A1C08F48FEF43
:103EE00008959B01AC0160E070E080E89FE30C94D2
:103EF0009D1EFA01EE0FFF1F309621053105A1F13D
:103F00006115710561F48038BFE39B0749F168943E
:103F10009038810561F08038BFEF9B0741F099230D
:103F20004AF5FF3FE1053105210519F1E8940894B0
:103F3000E795D901AA2329F4AB2FBE2FF85FD0F360
:103F400010C0FF5F70F4A695E0F7F73950F019F054
:103F5000FF3A38F49F779F930DD00F9007FC90584D
:103F6000089546F00C94E11C60E070E080E89FE367
:103F700008954FE79F775F934F933F932F930E944E
:103F8000A4202F913F914F915F910E946E1C0C9441
:103F90001B2019F416F40C94E11C0C944D200E9483
:103FA0000B1DB8F39923C9F3B6F39F57550B87FF41
:103FB0000E945B200024A0E640EA900180585695BC
:103FC000979528F4805C660F771F881F20F02617CE
:103FD0003707480730F4621B730B840B2029312903
:103FE0004A2BA69517940794202531254A2758F780
:103FF000660F771F881F20F026173707480730F411
:10400000620B730B840B200D311D411DA09581F7B0
:10401000B901842F9158880F9695879508959B0133
:10402000AC010C946E1C29F416F00C94DB1C0C945F
:10403000251D0C94E11C0E940B1DA8F39638A0F7D7
:1040400007F80F92E8942BE33AEA48EB5FE70E9407
:10405000841C0F920F920F924DB75EB70F920E9481
:10406000EC20E5E9F0E00E94451F4F915F91EF9150
:10407000FF91E595EE1FFF1F49F0FE57E0684427CA
:10408000EE0F441FFA95E1F74195550B0E9466200B
:104090000F9007FE0C94711F08959F3F31F09150CF
:1040A00020F4879577956795B795880F911D96951C
:1040B000879597F9089591505040660F771F881F94
:1040C000D2F708950C94DB1C0C944D200E940B1D1C
:1040D000D8F39923C9F3940F511DA3F39150504085
:1040E00094F059F0882332F0660F771F881F9150A3
:1040F0005040C1F79E3F51052CF7880F911D9695B2
:10410000879597F908955F3FACF0983E9CF0BB27E8
:10411000869577956795B79508F4B1609395C1F743
:10412000BB0F58F711F460FFE8CF6F5F7F4F8F4FE1
:104130009F4FE3CF0C94261D16F00C944D200C9449
:10414000E11C68940C94DB1C0E940B1DA8F39923BE
:10415000C1F3AEF3DF93CF931F930F93FF92C92F59
:10416000DD2788232AF02197660F771F881FDAF74B
:1041700020E030E040E85FEB9FE3883920F0803EAC
:1041800038F021968F770E94BF1DEDEBF0E004C060
:104190000E94BF1DEAEEF0E00E94451F8B01BE01A8
:1041A000EC01FB2E6F5771097595771F880B990BE2
:1041B0000E940F1C28E132E741E35FE30E94811C6B
:1041C000AF2D9801AE01FF900F911F91CF91DF911C
:1041D0000E94D61D0C94F21CFA01DC01AA0FBB1F31
:1041E0009B01AC01BF5728F422273327442750787E
:1041F00020C0B75190F4AB2F0024469537952795F2
:10420000011CA395D2F3002071F0220F331F441F2D
:10421000B395DAF30ED00C94BE1D61307105A0E8A1
:104220008A07B94630F49B01AC01662777278827B7
:104230009078309621F02083318342835383089510
:10424000DB018F939F930E944B1DBF91AF91A29F63
:10425000800D911DA39F900DB29F900D1124089584
:10426000991B79E004C0991F961708F0961B881FC8
:104270007A95C9F780950895AA1BBB1B51E107C029
:10428000AA1FBB1FA617B70710F0A61BB70B881FE6
:10429000991F5A95A9F780959095BC01CD01089575
:1042A000EE0FFF1F0590F491E02D0994AEE0B0E011
:1042B000ECE5F1E20C94641D0D891E8986E08C8387
:1042C0001A8309838FEF9FE79E838D83AE01475E3C
:1042D0005F4F6F89788DCE0101960E9479212F81E1
:1042E0003885020F131FF80110822E96E4E00C941B
:1042F000801DABE0B0E0EFE7F1E20C94561D7C01CD
:104300003B018A01FC0117821682838181FFC8C1AB
:10431000CE0101965C01F7019381F30193FD859134
:1043200093FF81913F01882309F453C1853239F409
:1043300093FD859193FF81913F01853229F4B70167
:1043400090E00E946923E7CF912C212C312CFFE1D2
:10435000F31538F08B3211F190F4803209F1833289
:1043600029F137FC3CC020ED280F2A3050F536FEED
:1043700020C08AE0989E200D1124922E06C08D3216
:1043800091F0803371F7689430F8F30193FD8591D3
:1043900093FF81913F018111DACF21C0689431F8F8
:1043A000689432F8F2CF689433F8EFCF689434F819
:1043B000ECCFEAE02E9E200D1124222E689435F8D1
:1043C000E4CF8E3229F436FC04C1689436F8DDCF90
:1043D0008C3619F4689437F8D8CF8836B1F2982F14
:1043E0009F7D95549330E0F08336A1F18337C1F17E
:1043F000833509F063C02801F2E04F0E511CF8012B
:10440000C080D180692D70E036FC02C06FEF7FEF75
:10441000C6010E9453234C01689437F882010AC0F8
:104420000C5F1F4FFFE3F98388248394912C65016F
:10443000E89437F833FE2DC0522C8114910471F5A5
:10444000552009F468CFB70180E290E00E9469230B
:104450005A94F6CFF801808189830E5F1F4FE4CF15
:104460002801F2E04F0E511CF801C080D180692D67
:1044700070E036FC02C06FEF7FEFC6010E945E2342
:104480004C018201D5CFB70180E290E00E94692300
:104490002A942814190409F0B0F7CECFF60137FC9E
:1044A000859137FE81916F01B70190E00E946923E9
:1044B00051105A94F1E08F1A9108BFCF843619F049
:1044C000893609F077C0F80137FE6BC060817181D1
:1044D000828193810C5F1F4FF32DFF763F2E97FF54
:1044E00009C090958095709561957F4F8F4F9F4F34
:1044F000689437F82AE030E0A5010E949923C82E7D
:10450000CA188C2C432C36FE0CC0E89440F8C91411
:1045100040F434FE05C032FC03C0F32DFE7E4F2E66
:10452000892C44FE95C0FE01EC0DF11D8081803385
:1045300009F087C0242D297E422E842D8870582EA4
:1045400043FC95C040FE8FC09C2C821418F42C0CA8
:10455000922C981844FE91C0B70180E390E00E942D
:10456000692342FE09C088E790E041FE02C088E569
:1045700090E0B7010E946923C91408F48AC0CA9464
:10458000D12C9FEFC91AD90ACA0CDB1CF601829103
:104590006F01B70190E00E946923AC14BD04B1F72C
:1045A0004FCF60817181072E000C880B990B0E5F35
:1045B0001F4F92CFD32CE894D4F82AE030E085370F
:1045C00039F1232D297FD22E8F3601F148F4883519
:1045D000A9F0F701868197812B96E2E10C94721D78
:1045E000803749F08837A9F7D4FE02C06894D2F822
:1045F00020E130E00DC06894D4F8F6CF34FE03C05B
:10460000822F8660D82E20E132E002C028E030E020
:10461000F801D7FE0FC060817181828193810C5FA8
:104620001F4FA5010E949923C82ECA183D2CE8945B
:1046300037F867CF6081718190E080E00E5F1F4F97
:10464000F0CF42FC02C0839478CF8394839475CFDB
:10465000842D867809F471CFF6CFB70180E290E01F
:104660000E94692383948214C0F3512C73CF522C7F
:104670005818821408F46ECFF8CF842D867809F488
:104680007BCF8BE241FE80E247FC8DE2B70190E0F8
:1046900071CFB70180E390E00E9469239A946CCFB8
:1046A0008FEF9FEF99CFFC01059061507040011092
:1046B000D8F7809590958E0F9F1F0895FC0161504B
:1046C000704001900110D8F7809590958E0F9F1F34
:1046D00008950F931F93CF93DF93182F092FEB01AA
:1046E0008B8181FD09C01FEF0FEF812F902FDF918C
:1046F000CF911F910F91089582FF14C02E813F81A9
:104700008C819D81281739073CF4E881F981CF011C
:1047100001969983888310838E819F8101969F8360
:104720008E83E3CFE885F985812F0995892BA1F345
:10473000DACFFA01AA27283051F1203181F1E8942B
:104740006F936E7F6E5F7F4F8F4F9F4FAF4FB1E084
:104750003ED0B4E03CD0670F781F891F9A1FA11D7F
:10476000680F791F8A1F911DA11D6A0F711D811D80
:10477000911DA11D20D009F468943F912AE0269F45
:1047800011243019305D3193DEF6CF010895462FA4
:104790004770405D4193B3E00FD0C9F7F6CF462F85
:1047A0004F70405D4A3318F0495D31FD40524193EE
:1047B00002D0A9F7EACFB4E0A695979587957795AB
:1047C0006795BA95C9F700976105710508959B0132
:1047D000AC010A2E06945795479537952795BA95BB
:1047E000C9F7620F731F841F951FA01D0895F894C9
:0247F000FFCFF9
:1047F200F4010000018001800180FF7FFF7FFF7FC5
:10480200673B3030303B3030303030303030303059
:1048120030303030303B653B000000004502A501DE
:10482200D20197020302E101F50100000000A20398
:104832007503330465038B01650166032530336913
:02484200000074
:00000001FF
